S0130000426172654D696E696D756D2E73726563BB
S113000007C1000035C1000033C1000031C1000048
S11300102FC100002DC100002BC1000029C1000028
S113002027C1000025C1000023C1000021C1000038
S11300301FC100001DC100001BC1000019C1000048
S113004017C100001CC3000013C1000011C100004F
S11300500FC100000DC100000BC10000D3C6000099
S113006007C1000005C1000003C1000001C1000078
S1130070FFC00000FDC00000FBC00000F9C000008C
S113008035C30000F5C00000F3C00000F1C000005B
S1130090EFC00000EDC00000EBC00000E9C00000AC
S11300A0E7C00000E5C0000058C30000E1C0000044
S11300B0DFC00000DDC00000DBC0000085C300001D
S11300C0D7C00000D5C00000D3C00000D1C00000DC
S11300D0CFC00000CDC00000CBC00000C9C00000EC
S11300E0C7C000004B084E083D0841084708850872
S11300F0520856085C08600864086A086E087208AA
S1130100850878087C08800800000A0B02090C0D99
S11301100E080703040100000000000000000000B6
S113012000000000000000000000000000000000CB
S11301300000000012111000000000000000000088
S113014000000000000000000000000000000102A8
S113015010202008081020401020408002010201D5
S1130160080402010102040810204080804020108D
S113017008040201800402018040201008040201E6
S1130180080402010102040810204080010204084E
S11301901020408005050505070508080808020227
S11301A002020A0A0808040404040101010101010D
S11301B001010303030303030303040707070C0CF0
S11301C00C0C0C0C0C0C02020202060606060606B7
S11301D006060B0B0B0B0B0B0B0B00002200250070
S11301E028002B002E00310034000201000005011C
S11301F008010B0100002100240027002A002D0023
S11302003000330001010000040107010A01B701B5
S113021011241FBECFEFD1E2DEBFCDBF00E00CBF83
S113022012E0A0E0B2E0E0E4F3E100E00BBF02C0C2
S113023007900D92A430B107D9F722E0A4E0B2E010
S113024001C01D92A73AB207E1F711E0C8E0D1E07E
S113025000E006C021970109802FFE010E947D095C
S1130260C730D10780E00807A9F7C1D50C949E09CF
S1130270C7CECF93DF93CDB7DEB769E070E084E0FB
S113028092E0C3D30000DF91CF910895AF92BF9263
S1130290CF92DF92EF92FF920F931F93CF93DF934E
S11302A0CDB7DEB78091000290910102B5D690934C
S11302B00802809307028091070290910802092E98
S11302C0000CAA0BBB0B1F921F921F9224EB2F93BF
S11302D0A12CB12C6501EE24EA9413E0F12E00E088
S11302E010E020E030E0A901BC01CD0179D70F90E6
S11302F00F900F900F90DC01CB0190930802809334
S113030007028091070290910802BC0184E092E008
S113031026D46FE070E080E090E0E3D50000DF9148
S1130320CF911F910F91FF90EF90DF90CF90BF90EE
S1130330AF900895CF93DF9300D01F92CDB7DEB76F
S11303409A8389837C836B8389819A81019739F4A9
S11303508B819C81019619F484E092E022D3000001
S11303600F900F900F900F90DF91CF910895CF933E
S1130370DF93CDB7DEB76FEF7FEF81E090E0DADF98
S1130380DF91CF910895CF93DF9300D01F921F92F6
S1130390CDB7DEB789837B836A835D834C83898190
S11303A0882F90E087569D4FFC018081881F882705
S11303B0881F882331F08A819B81FC01118210827D
S11303C071C08981282F30E0C901880F991F820FDD
S11303D0931F880F991F880F991F9C018981882F6B
S11303E090E087569D4FFC018081082E000C990BEC
S11303F0280F391F80919D02882F90E02817390714
S11304004CF58981282F30E0C901880F991F820F8C
S1130410931F880F991F880F991F9C018981882F2A
S113042090E087569D4FFC018081082E000C990BAB
S1130430280F391FC901880F991F820F931F875FE7
S11304409D4FFC01808186FB882780F9813011F45F
S113045081E001C080E0882329F18981282F30E0E0
S1130460C901880F991F820F931F880F991F880F46
S1130470991F9C018981882F90E087569D4FFC012C
S11304808081082E000C990B280F391FC901880F91
S1130490991F820F931F875F9D4FFC0180818F738B
S11304A060E070D68981882F90E09C0127563D4FEB
S11304B0F90120812F5F87569D4FFC01208389819C
S11304C0282F30E0C901880F991F820F931F880FCE
S11304D0991F880F991F9C018981882F90E0875666
S11304E09D4FFC018081082E000C990B280F391FA9
S11304F080919D02882F90E0281739075CF4898148
S1130500882F90E087569D4FFC0180818C3014F435
S113051081E001C080E0882309F47EC08A819B8148
S1130520FC01408151818981282F30E0C901880F65
S1130530991F820F931F880F991F880F991F9C0181
S11305408981882F90E087569D4FFC018081082E79
S1130550000C990B280F391FC901880F991F820FAE
S1130560931F865F9D4FFC01808191819A01280F22
S1130570391F8C819D81FC01318320838981282F3F
S113058030E0C901880F991F820F931F880F991FAC
S1130590880F991F9C018981882F90E087569D4F71
S11305A0FC018081082E000C990B280F391FC9010A
S11305B0880F991F820F931F875F9D4FFC018081D5
S11305C086FB882780F9882309F450C08981282F65
S11305D030E0C901880F991F820F931F880F991F5C
S11305E0880F991F9C018981882F90E087569D4F21
S11305F0FC018081082E000C990B280F391FC901BA
S1130600880F991F820F931F875F9D4FFC01808184
S11306108F7361E0B7D52AC08A819B81FC018081F8
S11306209181049621E080349C4908F020E0222343
S113063041F08C819D8120E43CE9FC0131832083DD
S11306400DC08A819B81FC01808191819C012C5F7A
S11306503F4F8C819D81FC01318320838981882FC8
S113066090E087569D4F2FEFFC01208300000F90F0
S11306700F900F900F900F90DF91CF9108951F92DC
S11306800F9200905F000F92112400905B000F9274
S11306902F933F934F935F936F937F938F939F9386
S11306A0AF93BF93EF93FF93CF93DF93CDB7DEB7B1
S11306B048E850E064E870E081E065DE0000DF9126
S11306C0CF91FF91EF91BF91AF919F918F917F91C6
S11306D06F915F914F913F912F910F9000925B002A
S11306E00F9000925F000F901F9018951F920F9229
S11306F000905F000F92112400905B000F922F93E3
S11307003F934F935F936F937F938F939F93AF9395
S1130710BF93EF93FF93CF93DF93CDB7DEB748E951
S113072050E064E970E082E02EDE0000DF91CF91BA
S1130730FF91EF91BF91AF919F918F917F916F91B5
S11307405F914F913F912F910F9000925B000F901A
S113075000925F000F901F9018951F920F920090C7
S11307605F000F92112400905B000F922F933F9330
S11307704F935F936F937F938F939F93AF93BF93A5
S1130780EF93FF93CF93DF93CDB7DEB748EA50E002
S113079064EA70E083E0F7DD0000DF91CF91FF9120
S11307A0EF91BF91AF919F918F917F916F915F91E5
S11307B04F913F912F910F9000925B000F90009208
S11307C05F000F901F9018951F920F9200905F008A
S11307D00F92112400905B000F922F933F934F933D
S11307E05F936F937F938F939F93AF93BF93EF9395
S11307F0FF93CF93DF93CDB7DEB748E251E064E2D5
S113080071E080E0C0DD0000DF91CF91FF91EF91B6
S1130810BF91AF919F918F917F916F915F914F9114
S11308203F912F910F9000925B000F9000925F0018
S11308300F901F901895CF93DF931F92CDB7DEB71B
S113084089838981813001F580E890E0FC01108280
S113085081E890E022E0FC01208384E890E0FC0140
S11308601182108286E390E026E330E0F9012081D2
S11308702260FC0120838FE690E02FE630E0F9014E
S113088020812260FC01208389818230C1F480E9C7
S113089090E0FC01108281E990E022E0FC012083D9
S11308A084E990E0FC011182108288E390E022E068
S11308B0FC01208381E790E022E0FC012083898110
S11308C08330C1F480EA90E0FC01108281EA90E078
S11308D022E0FC01208384EA90E0FC011182108272
S11308E089E390E022E0FC01208382E790E022E0AB
S11308F0FC01208389818823C1F480E291E0FC011A
S1130900108281E291E022E0FC01208384E291E004
S1130910FC01118210828AE390E022E0FC01208332
S113092083E790E022E0FC01208300000F90DF9138
S1130930CF910895CF93DF931F921F92CDB7DEB767
S11309408A83198289818C3030F58A81282F30E09E
S1130950C901880F991F820F931F880F991F880F51
S1130960991F9C018981882F90E0280F391FC901A4
S1130970880F991F820F931F875F9D4FFC01808111
S113098086FB882780F9813011F481E005C08981D4
S11309908F5F8983D7CF80E00F900F90DF91CF9145
S11309A00895CF93DF931F921F92CDB7DEB79A833A
S11309B0898380919D028033E8F420919D0281E037
S11309C0820F80939D0289819A81FC012083898111
S11309D09A81FC018081282F30E0C901880F991F7A
S11309E0820F931F865F9D4F28EB3BE0FC01318310
S11309F0208305C089819A812FEFFC0120830000A8
S1130A000F900F90DF91CF910895CF93DF9300D093
S1130A101F92CDB7DEB79A8389837C836B836B8106
S1130A207C8189819A8120E639E040E252E007D056
S1130A300F900F900F900F90DF91CF910895CF9367
S1130A40DF93CDB7DEB729970FB6F894DEBF0FBE9C
S1130A50CDBF9B838A837D836C835F834E83398779
S1130A6028878A819B81FC018081803308F06AC0D9
S1130A708C8161E04BD38A819B81FC018081282F8A
S1130A8030E08C81482F4F73C901880F991F820F62
S1130A90931F875F9D4F242F2F73FC013081307C7F
S1130AA0232BFC01208320E232E08E819F81A90167
S1130AB0481B590BCA0199230CF403969595879505
S1130AC095958795282F8A819B81FC01218320E6B7
S1130AD039E088859985A901481B590BCA019923D6
S1130AE00CF403969595879595958795282F8A817B
S1130AF09B81FC0122838A819B81FC0190818BEA8A
S1130B00989F812D11248695869586958983898160
S1130B1011DF982F81E08927882311F089818BDEEA
S1130B208A819B81FC018081282F30E0C901880FD4
S1130B30991F820F931F875F9D4FFC0120812064C2
S1130B40FC0120838A819B81FC01808129960FB658
S1130B50F894DEBF0FBECDBFDF91CF9108956F92A1
S1130B607F928F929F92AF92BF92CF92DF92EF9239
S1130B70FF920F931F93CF93DF9300D01F92CDB7B3
S1130B80DEB79A8389837C836B838B819C818032DB
S1130B9092400CF05BC08B819C81992314F41C82DD
S1130BA01B828B819C81853B910524F084EB90E032
S1130BB09C838B8389819A81FC018281082E000C9D
S1130BC0990B28E532E0A901481B590BCA01880F8B
S1130BD0991F880F991F092E000CAA0BBB0B2981A2
S1130BE03A81F9012181022E000C330B48E850E0D0
S1130BF0BA01621B730B9B01220F331F220F331F99
S1130C00032E000C440B550B6B817C813B01770F49
S1130C10880899086B2F6F936A2F6F93692F6F93CE
S1130C208F9359016A0114EBE12EF12C00E010E0DE
S1130C3020E030E0A901C401B301D2D20F900F909B
S1130C400F900F90DC01CB019C838B832B813C8123
S1130C5089819A81B90114D000000F900F900F90F0
S1130C600F90DF91CF911F910F91FF90EF90DF9044
S1130C70CF90BF90AF909F908F907F906F9008958A
S1130C80CF93DF9300D000D0CDB7DEB79C838B83A6
S1130C907E836D838B819C81FC0180818983898122
S1130CA0803308F099C08B819C81FC018181082EDE
S1130CB0000C990B28E830E0A901481B590BCA0124
S1130CC09C01220F331F220F331F8D819E818217B7
S1130CD09307A4F48B819C81FC018181082E000C74
S1130CE0990B28E830E0A901481B590BCA01880F69
S1130CF0991F880F991F9E838D832AC08B819C81A5
S1130D00FC018281082E000C990B28E532E0A90130
S1130D10481B590BCA019C01220F331F220F331F9A
S1130D208D819E81281739079CF48B819C81FC015D
S1130D308281082E000C990B28E532E0A901481B9A
S1130D40590BCA01880F991F880F991F9E838D83A1
S1130D508D819E8102979E838D838D819E81092E34
S1130D60000CAA0BBB0B880F991FAA1FBB1F880F6F
S1130D70991FAA1FBB1F880F991FAA1FBB1F880F8B
S1130D80991FAA1FBB1FBB231CF40796A11DB11DED
S1130D90689412F8B595A795979587951694D1F709
S1130DA09E838D838FE590E0FC0180818A83F89493
S1130DB08981282F30E04D815E81C901880F991FF8
S1130DC0820F931F865F9D4FFC01518340838FE503
S1130DD090E02A81FC012083000026960FB6F89447
S1130DE0DEBF0FBECDBFDF91CF9108950895B2D07D
S1130DF0FDDF3FDAC0E0D0E049DA2097E9F30E9452
S1130E000000FACF1F920F920FB60F9211242F9366
S1130E103F938F939F93AF93BF9380919F02909141
S1130E20A002A091A102B091A20230919E0223E0FF
S1130E30230F2D3720F40196A11DB11D05C026E80E
S1130E40230F0296A11DB11D20939E0280939F0241
S1130E509093A002A093A102B093A2028091A30256
S1130E609091A402A091A502B091A6020196A11DA1
S1130E70B11D8093A3029093A402A093A502B09302
S1130E80A602BF91AF919F918F913F912F910F90A7
S1130E900FBE0F901F9018953FB7F8948091A3024E
S1130EA09091A402A091A502B091A60226B5A89B98
S1130EB005C02F3F19F00196A11DB11D3FBFBA2FE8
S1130EC0A92F982F8827820F911DA11DB11DBC0148
S1130ED0CD0142E0660F771F881F991F4A95D1F70D
S1130EE008958F929F92AF92BF92CF92DF92EF922A
S1130EF0FF926B017C01D0DF4B015C01C114D10472
S1130F00E104F104F1F0ABD1C7DFDC01CB018819B6
S1130F109909AA09BB09883E9340A105B10570F35C
S1130F2021E0C21AD108E108F10888EE880E83E0B6
S1130F30981EA11CB11CC114D104E104F10421F7D1
S1130F40DDCFFF90EF90DF90CF90BF90AF909F9058
S1130F508F900895789484B5826084BD84B581604F
S1130F6084BD85B5826085BD85B5816085BDEEE6AD
S1130F70F0E0808181608083E1E8F0E0108280818C
S1130F8082608083808181608083E0E8F0E08081FA
S1130F9081608083E1EBF0E0808184608083E0EB1A
S1130FA0F0E0808181608083E1E9F0E0808182600B
S1130FB08083808181608083E0E9F0E080818160CA
S1130FC08083E1EAF0E080818260808380818160B7
S1130FD08083E0EAF0E0808181608083E1E2F1E0F7
S1130FE0808182608083808181608083E0E2F1E09F
S1130FF0808181608083EAE7F0E08081846080837F
S11310008081826080838081816080838081806828
S113101080831092C1000895863308F0865390911E
S11310207B00282F2870977F922B90937B00209130
S1131030020290E4299F900111248770822B8093EF
S11310407C0080917A00806480937A0080917A0099
S113105086FDFCCF809178002091790090E0922B5E
S1131060089590E0FC013197E231F10508F04DC09C
S11310708827EE58FF4F8F4F40C1809180008F77B3
S113108003C0809180008F7D8093800008958091BB
S11310908000877FF9CF84B58F7702C084B58F7DB8
S11310A084BD08958091B0008F7703C08091B00013
S11310B08F7D8093B0000895809190008F7707C052
S11310C0809190008F7D03C080919000877F8093F2
S11310D0900008958091A0008F7707C08091A000B0
S11310E08F7D03C08091A000877F8093A000089526
S11310F0809120018F7707C0809120018F7D03C0EC
S113110080912001877F809320010895CF93DF93FE
S113111090E0FC01E25BFE4F2491FC01EC56FE4F93
S11311208491882361F190E0880F991FFC01EC50B1
S1131130FE4FC591D491FC01E652FE4FA591B491A6
S1131140611109C09FB7F894888120958223888310
S1131150EC912E230BC0623061F49FB7F894888120
S1131160322F309583238883EC912E2B2C939FBFB1
S113117006C08FB7F894E8812E2B28838FBFDF91A8
S1131180CF9108951F93CF93DF93282F30E0F90177
S1131190E85FFE4F8491F901E25BFE4FD491F901BF
S11311A0EC56FE4FC491CC23B9F0162F811159DFB0
S11311B0EC2FF0E0EE0FFF1FE652FE4FA591B49125
S11311C09FB7F894111104C08C91D095D82302C014
S11311D0EC91DE2BDC939FBFDF91CF911F9108959B
S11311E04F925F926F927F92AF92BF92CF92DF92B3
S11311F0EF92FF920F931F93CF93DF93CDB7DEB798
S113120029013A019B01AC01241935094609570902
S11312108A899B89AC89BD89BC01CD016A197B0986
S11312208C099D091DD0A801970124193509460987
S1131230570947D0CA01B9016A0D7B1D8C1D9D1D3C
S1131240DF91CF911F910F91FF90EF90DF90CF909E
S1131250BF90AF907F906F905F904F9008950895E6
S1131260DB018F939F9351D0BF91AF91A29F800DCB
S1131270911DA39F900DB29F900D11240895A1E29A
S11312801A2EAA1BBB1BFD010DC0AA1FBB1FEE1FFC
S1131290FF1FA217B307E407F50720F0A21BB30B47
S11312A0E40BF50B661F771F881F991F1A9469F7C3
S11312B060957095809590959B01AC01BD01CF011F
S11312C00895052E97FB16F400940FD057FD05D012
S11312D0D6DF07FC02D046F408C0509540953095FF
S11312E021953F4F4F4F5F4F08959095809570958E
S11312F061957F4F8F4F9F4F0895EE0FFF1F881FFB
S11313008BBF0790F691E02D199409D0A59F900DFD
S1131310B49F900DA49F800D911D11240895A29F48
S1131320B001B39FC001A39F700D811D1124911DB5
S1131330B29F700D811D1124911D0895F894FFCF63
S1071340370001006D
S9030000FC
