:1000000068C7000097C7000095C7000093C70000AD
:1000100091C700008FC700008DC700008BC700008C
:1000200089C7000087C7000085C7000083C700009C
:1000300081C700007FC700007DC700007BC70000AC
:1000400079C700000C94674175C7000073C70000B2
:1000500071C700006FC700006DC700000C943E49D7
:1000600069C700000C947D470C94B34763C7000038
:1000700061C700005FC700005DC700005BC70000EC
:100080000C949E4157C7000055C7000053C700009D
:1000900051C700004FC700004DC700000C94E53A5F
:1000A00049C7000047C700000C94D54143C7000072
:1000B00041C700003FC700003DC700000C940C4240
:1000C00039C7000037C7000035C7000033C700003C
:1000D00031C700002FC700002DC700002BC700004C
:1000E00029C70000153C1A3C1A3C1A3C1A3C1A3C21
:1000F0001A3C1A3C1B3B1A3C1A3C1A3C1A3C1A3C50
:100100001A3C1A3C1B3B1A3C1A3C1A3C1A3C1A3C3F
:100110001A3C1A3C243B1A3C1A3C1A3C1A3C1A3C26
:100120001A3C1A3C4E3B1A3C1A3C1A3C1A3C1A3CEC
:100130001A3C1A3C243B1A3C1A3C1A3C1A3C1A3C06
:100140001A3C1A3C533B1A3C1A3C1A3C1A3C1A3CC7
:100150001A3C1A3C583B1A3C1A3C1A3C1A3C1A3CB2
:100160001A3C1A3C6D3B1A3C1A3C1A3C1A3C1A3C8D
:100170001A3C1A3C9A3B1A3C1A3C1A3C1A3C1A3C50
:100180001A3C1A3C5D3B1A3C1A3C1A3C1A3C1A3C7D
:100190001A3C1A3C793B1A3C1A3C1A3C1A3C1A3C51
:1001A0001A3C1A3C9C3B1A3C1A3C1A3C1A3C1A3C1E
:1001B0001A3C1A3C9C3B1A3C1A3C1A3C1A3C1A3C0E
:1001C0001A3C1A3C9C3B1A3C1A3C1A3C1A3C1A3CFE
:1001D0001A3C1A3C9C3B1A3C1A3C1A3C1A3C1A3CEE
:1001E0001A3C1A3CA43B1A3C1A3C1A3C1A3C1A3CD6
:1001F0001A3C1A3CDB3B1A3C1A3C1A3C1A3C1A3C8F
:100200001A3C1A3CA43B1A3C1A3C1A3C1A3C1A3CB5
:100210001A3C1A3CDB3B1A3C1A3C1A3C1A3C1A3C6E
:100220001A3C1A3CBE3B1A3C1A3C1A3C1A3C1A3C7B
:100230001A3C1A3CDE3B1A3C1A3C1A3C1A3C1A3C4B
:100240001A3C1A3CDE3B1A3C1A3C1A3C1A3C1A3C3B
:100250001A3C1A3CF43B1A3C1A3C1A3C1A3C1A3C15
:100260001A3C1A3C103C1A3C1A3C1A3C1A3C1A3CE8
:100270001A3C1A3C103C1A3C1A3C1A3C1A3C1A3CD8
:100280001A3C1A3C1A3C1A3C1A3C1A3C1A3C1A3CBE
:100290001A3C1A3C1A3C1A3C1A3C1A3C1A3C1A3CAE
:1002A0001A3C1A3C1A3C1A3C1A3C1A3C1A3C1A3C9E
:1002B0001A3C1A3C1A3C1A3C1A3C1A3C1A3C1A3C8E
:1002C0001A3C1A3C1A3C1A3C1A3C1A3C1A3C1A3C7E
:1002D0001A3C1A3C193C07634236B79BD8A71A3917
:1002E000685618AEBAAB558C1D3CB7CC5763BD6D84
:1002F000EDFD753EF6177231BF000000803F08002B
:100300000000BE922449123EABAAAA2ABECDCCCC94
:100310004C3E00000080BEABAAAAAA3E000000002E
:10032000BF000000803F0000000000084178D3BB00
:100330004387D1133D190E3CC3BD4282AD2B3E68AD
:10034000EC8276BED98FE1A93E4C80EFFFBE01C49E
:10035000FF7F3F0000000000794A7C4A6B4A6F4AE9
:10036000754AB34A804A844A8A4A8E4A924A984ACF
:100370009C4AA04AB34AA64AAA4AAE4A53534431B9
:1003800033303620616C6C6F636174696F6E206608
:1003900061696C6564004661696C656420746F20F6
:1003A000726561642066726F6D20444854207365E5
:1003B0006E736F72210048756D3A200025005465F8
:1003C0006D703A20004320001F1C1F1E1F1E1F1FA0
:1003D0001E1F1E1F00030205000305010406020480
:1003E00000000000003E5B4F5B3E3E6B4F6B3E1CCF
:1003F0003E7C3E1C183C7E3C181C577D571C1C5EE6
:100400007F5E1C00183C1800FFE7C3E7FF001824BC
:100410001800FFE7DBE7FF30483A060E2629792966
:1004200026407F050507407F05253F5A3CE73C5A9B
:100430007F3E1C1C08081C1C3E7F14227F22145F78
:100440005F005F5F06097F017F006689956A6060D3
:1004500060606094A2FFA29408047E040810207ECD
:10046000201008082A1C08081C2A08081E10101052
:10047000100C1E0C1E0C30383E3830060E3E0E0698
:10048000000000000000005F0000000700070014EB
:100490007F147F14242A7F2A1223130864623649AA
:1004A0005620500008070300001C22410000412292
:1004B0001C002A1C7F1C2A08083E08080080703097
:1004C0000008080808080000606000201008040206
:1004D0003E5149453E00427F40007249494946210C
:1004E00041494D331814127F1027454545393C4A80
:1004F0004949314121110907364949493646494997
:10050000291E0000140000004034000000081422DE
:10051000411414141414004122140802015909064C
:100520003E415D594E7C1211127C7F494949363E4D
:10053000414141227F4141413E7F494949417F0933
:100540000909013E414151737F0808087F00417F3E
:1005500041002040413F017F081422417F4040403C
:10056000407F021C027F7F0408107F3E4141413ED4
:100570007F090909063E4151215E7F091929462656
:100580004949493203017F01033F4040403F1F205A
:1005900040201F3F4038403F631408146303047831
:1005A00004036159494D43007F4141410204081051
:1005B00020004141417F040201020440404040408C
:1005C000000307080020545478407F2844443838FA
:1005D00044444428384444287F385454541800086C
:1005E0007E090218A4A49C787F0804047800447D46
:1005F00040002040403D007F1028440000417F40E3
:10060000007C047804787C08040478384444443836
:10061000FC1824241818242418FC7C080404084816
:100620005454542404043F44243C4040207C1C2067
:1006300040201C3C4030403C44281028444C9090C2
:10064000907C4464544C440008364100000077001C
:1006500000004136080002010204023C2623263C29
:100660001EA1A161123A4040207A385454555921B4
:10067000555579412254547842215554784020549C
:100680005579400C1E5272123955555559395454EA
:10069000545939555454580000457C410002457D59
:1006A000420001457C407D1211127DF0282528F082
:1006B0007C545545002054547C547C0A097F4932AF
:1006C000494949323A4444443A324A4848303A4126
:1006D00041217A3A42402078009DA0A07D3D4242CF
:1006E000423D3D4040403D3C24FF2424487E494358
:1006F000662B2FFC2F2BFF0929F620C0887E0903CB
:1007000020545479410000447D413048484A3238F1
:100710004040227A007A0A0A727D0D19317D26291D
:10072000292F28262929292630484D402038080815
:10073000080808080808382F10C8ACBA2F10283449
:10074000FA00007B000008142A142222142A14083C
:100750005500550055AA55AA55AAFF55FF55FF004B
:100760000000FF00101010FF00141414FF00101000
:10077000FF00FF1010F010F0141414FC001414F714
:1007800000FF0000FF00FF1414F404FC1414171001
:100790001F10101F101F1414141F00101010F00051
:1007A0000000001F101010101F10101010F010008B
:1007B0000000FF101010101010101010FF1000009B
:1007C00000FF140000FF00FF00001F10170000FCD6
:1007D00004F414141710171414F404F40000FF00A8
:1007E000F714141414141414F700F7141414171431
:1007F00010101F101F141414F4141010F010F00037
:10080000001F101F0000001F14000000FC14000057
:10081000F010F01010FF10FF141414FF141010103B
:100820001F00000000F010FFFFFFFFFFF0F0F0F0EE
:10083000F0FFFFFF0000000000FFFF0F0F0F0F0F82
:100840003844443844FC4A4A4A347E0202060602CE
:100850007E027E0263554941633844443C04407E35
:10086000201E2006027E020299A5E7A5991C2A49AE
:100870002A1C4C7201724C304A4D4D303048784839
:1008800030BC625A463D3E494949007E0101017E25
:100890002A2A2A2A2A44445F444440514A44404078
:1008A000444A51400000FF0103E080FF00000808B7
:1008B0006B6B083612362436060F090F0600001837
:1008C000180000001010003040FF0101001F01015E
:1008D0001E00191D1712003C3C3C3C0000000000AB
:1008E0000000000000018000000000000000000087
:1008F000038000000000000000000007C0000000AE
:1009000000000000000007C0000000000000000020
:10091000000FC00000000000000000001FE0000009
:10092000000000000000001FE000000000000000C8
:1009300000003FE00000000000000000003FF00069
:1009400000000000000000007FF000000000000038
:10095000001FF87FF0000000000000003FFE7FF065
:10096000000000000000003FFF7FF00000000000DA
:1009700000001FFFFBE0000000000000000FFFF977
:10098000FFC00000000000000FFFF9FFF8000000AA
:1009900000000007FFF1FFFF00000000000003FC63
:1009A00073FFFF80000000000001FE3FFFFF80009A
:1009B0000000000000FF1E0FFF000000000000000C
:1009C0007FFE1FFC000000000000003FFFFFF8005A
:1009D0000000000000000FDFFFE00000000000004A
:1009E000001F19FFC0000000000000003F3CFF0096
:1009F000000000000000007E7CF800000000000005
:100A000000007FFE7C0000000000000000FFFFFCF3
:100A10000000000000000000FFFFFE0000000000DA
:100A2000000000FFFFFE0000000000000001FFEFDB
:100A3000FE0000000000000001FFCFFE00000000EB
:100A400000000003FF07FE0000000000000003FCA0
:100A500007FE0000000000000003F003FE0000009D
:100A600000000000018000FE000000000000000007
:100A700000007E000000000000000000003E0000BA
:100A800000000000000000000C0000000000000753
:100A90008000FC000003C0000000078001FC000093
:100AA00003C0000000078001FC000003C00000003C
:100AB000078001E00000001E000000078001E00048
:100AC00000001E007FE3F79FF9FDE7787BDFC0FFA2
:100AD000F7FFBFFDFDFF787BDFC0FFF7FFBFFDFD28
:100AE000FF787BDFC0F0F787BC3DE1FF787BDE005D
:100AF000F0F787BC3DE1F0787BDE0000F787803DB2
:100B0000E1E0787BDE007FF7879FFDE1E0787BDE28
:100B100000FFF787BFFDE1E0787BDE00F0F787BCE0
:100B20003DE1E0787BDE00F0F787BC3DE1E0787BDB
:100B3000DE00F0F787BC3DE1E0787BDE00FFF7FFE9
:100B4000BFFDE1E07FFBDFC0FFF7FFBFFDE1E07F1E
:100B5000FBDFC07CF3F39F3DE1E03E7BCFC00000B4
:100B6000000000000000000000FFFFFFFFFFFFFF8C
:100B7000FFFFFFC0FFFFFFFFFD68DB111A31C0FF61
:100B8000FFFFFFFD2B5AFB6AEFC0FFFFFFFFFD4B8E
:100B90005B3B1A33C0FFFFFFFFFD6B5BDB6AFDC0F1
:100BA00000006000000000000000000000000000E5
:100BB00000E0000000000000000000000000000154
:100BC000E00000000000000000000000000001F054
:100BD0000000000000000000000000000003F00022
:100BE00000000000000000000000000007F000000E
:100BF000000000000000000000000007F8000000F6
:100C0000000000000000000000000FF800000003DA
:100C1000C0007E000001E0007F0FF800000003C06C
:100C200000FE000001E000FFEFF800000003C0003C
:100C3000FE000001E000FFFFF800000003C000F02C
:100C40000000000F007FFE7FC0000003C000F00026
:100C500000000F003FFE7FF83FF1FBCFFCFEF3BC2E
:100C60003DEFE01FFE7FFF7FFBFFDFFEFEFFBC3D91
:100C7000EFE01FC6FFFF7FFBFFDFFEFEFFBC3DEF87
:100C8000E00FE3C7FE787BC3DE1EF0FFBC3DEF0044
:100C900007FF87FC787BC3DE1EF0F83C3DEF0001C8
:100CA000FFFFF0007BC3C01EF0F03C3DEF0001F3FE
:100CB0007FE03FFBC3CFFEF0F03C3DEF0003E33F9E
:100CC000807FFBC3DFFEF0F03C3DEF0007E73C0018
:100CD000787BC3DE1EF0F03C3DEF0007FFBE0078DE
:100CE0007BC3DE1EF0F03C3DEF0007FFFE00787B8B
:100CF000C3DE1EF0F03C3DEF000FFFFE007FFBFF68
:100D0000DFFEF0F03FFDEFE00FFFFF007FFBFFDFB6
:100D1000FEF0F03FFDEFE00FF9FF003E79F9CF9EC6
:100D2000F0F01F3DE7E01FF1FF00000000000000B1
:100D300000000000001F80FF007FFFFFFFFFFFFF9C
:100D4000FFFFFFE01C007F007FFFFFFFFEB46D8808
:100D50008D18E000001F007FFFFFFFFE95AD7DB501
:100D600077E000000F007FFFFFFFFEA5AD9D8D190E
:100D7000E0000006007FFFFFFFFEB5ADEDB57EE0B1
:100D8000AED580A8D300408D2000A1C8DB40A4A62A
:100D90002EAF0080C0E0F0F8FCFE000103070F1F3B
:100DA0003F7F2200FF210000000A0B02090C0D0EFC
:100DB000080703040100000000000000000000001C
:100DC0000000000000000000000000000000000023
:100DD00000000012111000000000000000000000E0
:100DE00000000000000000000000000000010210F0
:100DF0002020080810204010204080020102010835
:100E000004020101020408102040808040201008E4
:100E1000040201800402018040201008040201083D
:100E2000040201010204081020408001020408109D
:100E3000204080050505050705080808080202028C
:100E4000020A0A0808040404040101010101010165
:100E5000010303030303030303040707070C0C0C3C
:100E60000C0C0C0C0C020202020606060606060614
:100E7000060B0B0B0B0B0B0B0B00002000230026AB
:100E80000029002C002F00320000010000030106A1
:100E900001090100002200250028002B002E00314E
:100EA00000340002010000050108010B01000021CF
:100EB00000240027002A002D00300033000101002B
:100EC00000040107010A01003C0BF114593FE547FA
:100ED000480B11241FBECFEFD1E2DEBFCDBF00E033
:100EE0000CBF12E0A0E0B2E0ECECFDE900E00BBFCB
:100EF00002C007900D92A43BB107D9F725E0A4EBFF
:100F0000B2E001C01D92A633B207E1F717E0C8E6D0
:100F1000D7E000E006C021970109802FFE010E9462
:100F20005B4CC436D10780E00807A9F70E9414483B
:100F30000C94D54E65C8CF93DF9300D0CDB7DEB704
:100F40009A8389836B8389819A816B810E94BA4BD2
:100F500000000F900F900F90DF91CF910895CF93E5
:100F6000DF9300D000D0CDB7DEB79A8389834B835F
:100F70005C836D837E838B819C81AD81BE81E981A1
:100F8000FA8126E0AC01BD01CF010E941A470000A2
:100F900026960FB6F894DEBF0FBECDBFDF91CF917E
:100FA0000895CF93DF9300D000D0CDB7DEB79A83FA
:100FB00089837C836B835E834D8389819A812B81B6
:100FC0003C81FC013587248789819A812D813E816E
:100FD000FC0137872687000026960FB6F894DEBFFF
:100FE0000FBECDBFDF91CF910895CF93DF9300D097
:100FF0001F92CDB7DEB79A8389837C836B83898107
:101000009A812B813C81FC01338B228B89819A81CF
:10101000FC012289338989819A81FC01318B208BE3
:1010200000000F900F900F900F90DF91CF910895D7
:10103000CF92EF920F93CF93DF93CDB7DEB740E817
:1010400055E260E070E08CE894E089DF62E08CECCF
:1010500092E00E94B42561E070E08CEC92E0C5DF84
:1010600001E021E04CE362E08CEC92E00E94D529A3
:10107000982F81E08927882341F08CE793E0BC0119
:101080008CE894E00E949C48FFCF84EB92E00E94A1
:101090001C15C12C6894EE24E4F80BE028E046E02F
:1010A00066EE77E084EB92E00E94601567E38CE0E7
:1010B00093E0A9D30000DF91CF910F91EF90CF90F3
:1010C0000895AF92BF92CF92DF92EF92FF920F936B
:1010D0001F93CF93DF93CDB7DEB766970FB6F89423
:1010E000DEBF0FBECDBF0E948849DC01CB018983E2
:1010F0009A83AB83BC83CE010B9664EB72E00E94B3
:10110000E1158CE0FE013B96A0ECB2E001900D925F
:101110008A95E1F760E08CE093E059D5DC01CB01E2
:10112000BC01CD010E941443DC01CB019E838D8361
:1011300040E060E08CE093E090D3DC01CB01BC01A7
:10114000CD010E941443DC01CB0198878F838D81F0
:101150009E81092E000CAA0BBB0BBC01CD010E9485
:1011600047435B016C018F819885092E000CAA0B07
:10117000BB0BBC01CD010E944743DC01CB01E12C3C
:1011800096018501AC01BD018CE093E0CAD5DC017C
:10119000CB01BC01CD010E941443DC01CB019A8735
:1011A00089878D819E81092E000CAA0BBB0BBC0187
:1011B000CD010E944743DC01CB019C01AD01BC0184
:1011C000CD010E94EC448823A1F48F819885092EDB
:1011D000000CAA0BBB0BBC01CD010E944743DC01F4
:1011E000CB019C01AD01BC01CD010E94EC448823E0
:1011F00011F081E001C080E0882341F086E993E0AE
:10120000BC018CE894E00E949C485EC080911F0362
:1012100090912003A0912103B091220329813A816A
:101220004B815C8179018A01E81AF90A0A0B1B0BD0
:10123000D801C70180319742A105B10590F089819D
:101240009A81AB81BC8180931F0390932003A0936C
:101250002103B09322039091270381E08927809393
:1012600027038091230390912403A0912503B0913B
:10127000260329813A814B815C8179018A01E81A30
:10128000F90A0A0B1B0BD801C701843F9140A10545
:10129000B105D0F089819A81AB81BC818093230311
:1012A00090932403A0932503B093260390912703E2
:1012B00081E08927882311F074D006C02F813885FA
:1012C0008D819E81B90122D166960FB6F894DEBF5A
:1012D0000FBECDBFDF91CF911F910F91FF90EF9087
:1012E000DF90CF90BF90AF900895CF93DF931F9280
:1012F0001F92CDB7DEB79A83898389819A810E9434
:101300001E4B00000F900F90DF91CF9108951F9317
:10131000CF93DF93CDB7DEB760970FB6F894DEBFFB
:101320000FBECDBF9E878D87788B6F872F853889BD
:10133000CE0107964AE0B9010E94D24B10E08F859A
:1013400098890A976CF460E3CE010196F4DD11E010
:10135000CE010796BC01CE0101960E94284C02C026
:10136000CE0107962D853E85BC01C9010E949D4B8B
:10137000112329F00000CE010196B7DF01C0000063
:10138000CE0107960E941E4B00008D859E856096BB
:101390000FB6F894DEBF0FBECDBFDF91CF911F9186
:1013A0000895CF93DF93CDB7DEB7A4970FB6F89427
:1013B000DEBF0FBECDBF8CEC92E00E94252F40E037
:1013C00050E060E070E08CEC92E0EBDD8091C002D8
:1013D0009091C1029C01CE014F96B90198DFCE01D8
:1013E0004F96BC018CEC92E00E948348CE014F9650
:1013F0000E941E4B67E072E08CEC92E00E949148E4
:101400008091C202282F30E0CE014996B9017FDFDA
:10141000CE014996BC018CEC92E00E948348CE013B
:1014200049960E941E4B67E072E08CEC92E00E94AD
:1014300091488091C302282F30E0CE014396B90134
:1014400066DFCE014396BC018CEC92E00E9483489B
:10145000CE0143960E941E4B44E150E060E070E0F4
:101460008CEC92E09EDD8091C402282F30E0CE010A
:101470000D96B9014CDFCE010D96BC018CEC92E0CB
:101480000E948348CE010D960E941E4B69E072E0D7
:101490008CEC92E00E9491488091C502282F30E0A8
:1014A000CE010796B90133DFCE010796BC018CEC63
:1014B00092E00E948348CE0107960E941E4B69E08D
:1014C00072E08CEC92E00E9491488091C602882FD5
:1014D00090E0BC01CE0101961ADFCE010196BC015D
:1014E0008CEC92E00E948348CE0101960E941E4B34
:1014F0008CEC92E00E9483330000A4960FB6F8941F
:10150000DEBF0FBECDBFDF91CF910895CF93DF93A4
:1015100000D01F92CDB7DEB79A8389837C836B831B
:1015200040E050E060E070E08CEC92E03ADD8CEC62
:1015300092E00E94252F86EB93E0BC018CEC92E0B8
:101540000E945F4889819A814AE050E0BC018CEC9E
:1015500092E00E9438498CEB93E0BC018CEC92E065
:101560000E945F4844E150E060E070E08CEC92E063
:1015700018DD8EEB93E0BC018CEC92E00E945F489A
:101580008B819C814AE050E0BC018CEC92E00E948F
:10159000384980910602682F8CEC92E00E949248B4
:1015A00085EC93E0BC018CEC92E00E945F488CECEF
:1015B00092E00E94833300000F900F900F900F90E5
:1015C000DF91CF9108958F929F92AF92BF92CF9269
:1015D000DF92EF92FF920F93CF93DF9300D01F9291
:1015E000CDB7DEB79A8389837C836B8389819A81A7
:1015F000019729F58B819C81019609F50F2EF0EA60
:101600008F2EF6E89F2EAA24A394B12CF02D0F2E36
:10161000F0E8CF2EFAE1DF2EF6E0EF2EF12CF02DE0
:1016200004E027EE33E040E460E88CEC92E00E94B6
:10163000E52626E04BE068E08CE093E094D08981D9
:101640009A81892B41F48B819C81019621F48CEC49
:1016500092E00E94772700000F900F900F900F905C
:10166000DF91CF910F91FF90EF90DF90CF90BF90DF
:10167000AF909F908F900895CF93DF93CDB7DEB753
:101680006FEF7FEF81E090E09EDFDF91CF910895D3
:10169000CF93DF93CDB7DEB76FEF7FEF80E090E0C1
:1016A00092DFDF91CF910895CF93DF931F921F9226
:1016B000CDB7DEB79A83898380E090E00F900F90DA
:1016C000DF91CF910895CF93DF931F921F92CDB7F3
:1016D000DEB79A83898300000F900F90DF91CF913E
:1016E0000895CF93DF931F921F92CDB7DEB79A83F1
:1016F000898389819A81FC01808591850F900F9063
:10170000DF91CF910895CF93DF931F921F92CDB7B2
:10171000DEB79A83898389819A81FC0182859385CA
:101720000F900F90DF91CF910895CF93DF931F9289
:101730001F92CDB7DEB79A838983F89400000F908B
:101740000F90DF91CF910895CF93DF931F921F9257
:10175000CDB7DEB79A838983789400000F900F90FD
:10176000DF91CF910895CF93DF93CDB7DEB72B975D
:101770000FB6F894DEBF0FBECDBF98878F83698701
:101780004A872B878F8198852985FC0125838F8146
:1017900098852A85FC0126838985882F90E08351CE
:1017A000924F9A83898389819A81FC0184918B83EA
:1017B0008F8198852B81FC0127838985882F90E074
:1017C0008D5C914F9D838C838C819D81FC018491E4
:1017D0008E838F8198852E81FC0120872F8138850B
:1017E00080E89EE3A0E0B0E0F90185879687A787AF
:1017F000B08B00002B960FB6F894DEBF0FBECDBFA6
:10180000DF91CF910895CF93DF9300D0CDB7DEB7AE
:101810009A8389836B8389819A81FC01858162E047
:101820000E94B44A0E948849DC01CB01805D974048
:10183000A109B10929813A81F90181879287A3879A
:10184000B48789819A812B81FC01228B00000F9043
:101850000F900F90DF91CF910895CF93DF93CDB785
:10186000DEB728970FB6F894DEBF0FBECDBF9E83BC
:101870008D836F83488780E090E0A0ECBFE7898389
:101880009A83AB83BC838D819E81688549D58823EB
:1018900009F434C18D819E81FC018681882F90E0FE
:1018A0008C30910509F472C08D3091051CF40B97B2
:1018B00031F024C14597029708F020C1C7C08D813F
:1018C0009E81FC018281882F90E0A0E0B0E0BC0105
:1018D000CD010E944543DC01CB0189839A83AB8310
:1018E000BC838D819E81FC018381882384F42981BE
:1018F0003A814B815C8160E070E080E89FEB0E9460
:101900004342DC01CB0189839A83AB83BC838D8105
:101910009E81FC018381882F90E08F709927092E8A
:10192000000CAA0BBB0BBC01CD010E944743DC019C
:10193000CB012DEC3CEC4CEC5DE3BC01CD010E94F5
:10194000FB43DC01CB019C01AD0169817A818B8174
:101950009C810E944442DC01CB0189839A83AB8342
:10196000BC838F81882309F4C4C089819A81AB81AB
:10197000BC812D813E81AC01BD01C901CED0DC010D
:10198000CB0189839A83AB83BC83B3C08D819E8155
:10199000FC018281882F90E0A0E0B0E0BC01CD0185
:1019A0000E944543DC01CB0189839A83AB83BC83CE
:1019B0008D819E81FC018381882F90E08F70992713
:1019C000092E000CAA0BBB0BBC01CD010E944743A2
:1019D000DC01CB012DEC3CEC4CEC5DE3BC01CD011A
:1019E0000E94FB43DC01CB019C01AD0169817A813E
:1019F0008B819C810E944442DC01CB0189839A83C4
:101A0000AB83BC838D819E81FC01828188234CF451
:101A100089819A81AB81BC81B05889839A83AB83D9
:101A2000BC838F81882309F466C089819A81AB8148
:101A3000BC812D813E81AC01BD01C9016ED0DC01AC
:101A4000CB0189839A83AB83BC8355C08D819E81F2
:101A5000FC018281882F90E08F779927382F2227E9
:101A60008D819E81FC018381882F90E0822B932BB6
:101A7000CC01A0E0B0E0BC01CD010E944543DC01F7
:101A8000CB0189839A83AB83BC832DEC3CEC4CEC7B
:101A90005DE369817A818B819C810E94FB43DC013B
:101AA000CB0189839A83AB83BC838D819E81FC01AA
:101AB000828188234CF489819A81AB81BC81B058A2
:101AC00089839A83AB83BC838F818823B1F089811A
:101AD0009A81AB81BC812D813E81AC01BD01C901E0
:101AE0001CD0DC01CB0189839A83AB83BC830000CB
:101AF00004C0000003C0000001C0000089819A8179
:101B0000AB81BC81BC01CD0128960FB6F894DEBF35
:101B10000FBECDBFDF91CF910895CF93DF9300D05B
:101B200000D0CDB7DEB79A8389834B835C836D8306
:101B30007E8326E636E646EE5FE36B817C818D810F
:101B40009E810E94FB43DC01CB0120E030E040E0BD
:101B500052E4BC01CD010E944442DC01CB01BC0136
:101B6000CD0126960FB6F894DEBF0FBECDBFDF9134
:101B7000CF910895CF93DF9300D000D0CDB7DEB7DB
:101B80009A8389834B835C836D837E8320E030E07E
:101B900040E052E46B817C818D819E810E944342B2
:101BA000DC01CB0126E838E34EE05FE3BC01CD0168
:101BB0000E94FB43DC01CB01BC01CD0126960FB690
:101BC000F894DEBF0FBECDBFDF91CF910895CF92C5
:101BD000DF92EF92FF92CF93DF93CDB7DEB72797D7
:101BE0000FB6F894DEBF0FBECDBF9E838D836F838B
:101BF00080E090E0A0ECBFE789839A83AB83BC834D
:101C00008D819E816F818CD3882309F477C08D816B
:101C10009E81FC018681882F90E08B3091050CF429
:101C20006DC08D3091052CF04597029708F066C085
:101C300037C08D819E81FC018081882F90E0092E24
:101C4000000CAA0BBB0BBC01CD010E9447436B01EA
:101C50007C018D819E81FC018181882F90E0092E7D
:101C6000000CAA0BBB0BBC01CD010E944743DC0159
:101C7000CB012DEC3CEC4CEC5DE3BC01CD010E94B2
:101C8000FB43DC01CB019C01AD01C701B6010E9401
:101C90004442DC01CB0189839A83AB83BC832EC091
:101CA0008D819E81FC018081882F90E0382F222732
:101CB0008D819E81FC018181882F90E0822B932B66
:101CC000CC01A0E0B0E0BC01CD010E944543DC01A5
:101CD000CB0189839A83AB83BC832DEC3CEC4CEC29
:101CE0005DE369817A818B819C810E94FB43DC01E9
:101CF000CB0189839A83AB83BC83000089819A815D
:101D0000AB81BC81BC01CD0127960FB6F894DEBF34
:101D10000FBECDBFDF91CF91FF90EF90DF90CF90BE
:101D200008958F929F92AF92BF92CF92DF92EF92DF
:101D3000FF920F931F93CF93DF93CDB7DEB72F970B
:101D40000FB6F894DEBF0FBECDBF9E838D834F8349
:101D5000588769877A870B871C872D873E87EF8690
:101D60009F8581E08927882381F08F819885A985C7
:101D7000BA852D813E81AC01BD01C901CEDEDC01F9
:101D8000CB018F839887A987BA8720E030E044E7AA
:101D900052E46F81788589859A850E944442DC01EE
:101DA000CB016C017D0120E030E048E852E46F8116
:101DB000788589859A850E944342DC01CB012AE916
:101DC00039E949E95FE3BC01CD010E94FB43DC0135
:101DD000CB019C01AD01C701B6010E944442DC0168
:101DE000CB016C017D0122E133E840EC5DE36B85C2
:101DF0007C858D859E850E94FB43DC01CB019C0187
:101E0000AD01C701B6010E944442DC01CB0120E0D4
:101E100030E040E05FE3BC01CD010E94FB43DC0108
:101E2000CB0189839A83AB83BC8320E030E04EE909
:101E300052E469817A818B819C810E94F743181654
:101E40000CF045C221E133E243E050E46F81788534
:101E500089859A850E94FB43DC01CB0129E134E8A6
:101E600049E252E4BC01CD010E944342DC01CB01B6
:101E70006C017D0126E13BE442E251E46B857C8507
:101E80008D859E850E94FB43DC01CB019C01AD0149
:101E9000C701B6010E944442DC01CB016C017D0107
:101EA00028E436E246E65EEB6F81788589859A857F
:101EB0000E94FB43DC01CB012B853C854D855E8573
:101EC000BC01CD010E94FB43DC01CB019C01AD01B3
:101ED000C701B6010E944442DC01CB016C017D01C7
:101EE0008F819885A985BA8520E030E040E050E4F4
:101EF000BC01CD010E945E44DC01CB0120EE3FE03D
:101F000040EE5BEBBC01CD010E94FB43DC01CB0149
:101F10009C01AD01C701B6010E944442DC01CB0126
:101F20006C017D018B859C85AD85BE8520E030E010
:101F300040E050E4BC01CD010E945E44DC01CB01D5
:101F400028EF37E840E65DEBBC01CD010E94FB4382
:101F5000DC01CB019C01AD01C701B6010E944442E6
:101F6000DC01CB016C017D018F819885A985BA8543
:101F700020E030E040E050E4BC01CD010E945E442E
:101F8000DC01CB012CEA3DE041EA5AE3BC01CD0182
:101F90000E94FB43DC01CB012B853C854D855E8592
:101FA000BC01CD010E94FB43DC01CB019C01AD01D2
:101FB000C701B6010E944442DC01CB016C017D01E6
:101FC00028EC3FE84FE55AE36F81788589859A854B
:101FD0000E94FB43DC01CB014C015D018B859C859C
:101FE000AD85BE8520E030E040E050E4BC01CD018D
:101FF0000E945E44DC01CB019C01AD01C501B4012E
:102000000E94FB43DC01CB019C01AD01C701B6017D
:102010000E944442DC01CB016C017D018F819885D7
:10202000A985BA8520E030E040E050E4BC01CD0154
:102030000E945E44DC01CB0121EF3BE845E056EB1A
:10204000BC01CD010E94FB43DC01CB014C015D01D1
:102050008B859C85AD85BE8520E030E040E050E476
:10206000BC01CD010E945E44DC01CB019C01AD01AD
:10207000C501B4010E94FB43DC01CB019C01AD0111
:10208000C701B6010E944442DC01CB0189839A83D7
:10209000AB83BC8320E030E040E551E46B857C8578
:1020A0008D859E850E94A84288230CF0A5C020E063
:1020B00030E040EA52E46F81788589859A850E94F4
:1020C000F74388230CF498C020E030E040EE52E45F
:1020D0006F81788589859A850E94A84218160CF42C
:1020E0008BC02B853C854D855E8560E070E080E58A
:1020F00091E40E944342DC01CB0120E030E040E863
:102100005EE3BC01CD010E94FB43DC01CB016C010D
:102110007D0120E030E04EEB52E46F8178858985C7
:102120009A850E944342DC01CB0120E030E0A90106
:10213000BC01CD010E94F74318160CF520E030E0F9
:102140004EEB52E46F81788589859A850E944342DF
:10215000DC01CB019C01AD0160E070E088E891E416
:102160000E944342DC01CB012EE33DEE40E75DE3FC
:10217000BC01CD010E94FB43DC01CB0120C020E06B
:1021800030E04EEB52E46F81788589859A850E9414
:102190004342DC01CB0120E030E048E851E4BC01DF
:1021A000CD010E944442DC01CB012EE33DEE40E72D
:1021B0005DE3BC01CD010E94FB43DC01CB01BC010E
:1021C000CD010E94AE44DC01CB019C01AD01C701F1
:1021D000B6010E94FB43DC01CB019C01AD0169818A
:1021E0007A818B819C810E944342DC01CB018983EF
:1021F0009A83AB83BC836BC020E030E04AEA52E4B0
:102200006B857C858D859E850E94F74318160CF0A2
:102210005EC020E030E040EA52E46F817885898535
:102220009A850E94F74388230CF451C020E030E0E7
:102230004EEA52E46F81788589859A850E94A8428A
:1022400018160CF444C020E030E04AEA52E46B85F2
:102250007C858D859E850E944342DC01CB012DEC5F
:102260003CEC4CEC5DE3BC01CD010E94FB43DC0186
:10227000CB016C017D012F81388549855A8560E04D
:1022800070E08EEA92E40E944342DC01CB012DEC27
:102290003CEC4CE45EE3BC01CD010E94FB43DC015D
:1022A000CB019C01AD01C701B6010E94FB43DC01DB
:1022B000CB019C01AD0169817A818B819C810E9457
:1022C0004442DC01CB0189839A83AB83BC838F8535
:1022D000882329F089819A81AB81BC810CC08981D6
:1022E0009A81AB81BC812D813E81AC01BD01C901C8
:1022F00041DCDC01CB01BC01CD012F960FB6F89477
:10230000DEBF0FBECDBFDF91CF911F910F91FF9028
:10231000EF90DF90CF90BF90AF909F908F900895F7
:10232000AF92BF92CF92DF92FF920F931F93CF9302
:10233000DF93CDB7DEB7C455D1400FB6F894DEBFFA
:102340000FBECDBF9E012E5A3E4FF901918380836F
:10235000CE018C5A9E4FFC0160830E948849DC01AB
:10236000CB018D839E83AF83B887CE018C5A9E4F5D
:10237000FC01908181E08927882329F1CE018E5AC2
:102380009E4FFC0180819181FC0181859285A3850E
:10239000B4852D813E814F81588559016A01A81A63
:1023A000B90ACA0ADB0AD601C501803D9740A105DA
:1023B000B10548F4CE018E5A9E4FFC018081918177
:1023C000FC01F1885FC2CE018E5A9E4FFC01208134
:1023D00031818D819E81AF81B885F9018187928796
:1023E000A387B487CE018E5A9E4FFC0180819181D4
:1023F000FC011482CE018E5A9E4FFC018081918196
:10240000FC012481CE018E5A9E4FFC018081918176
:10241000FC012383CE018E5A9E4FFC018081918165
:10242000FC012381CE018E5A9E4FFC018081918157
:10243000FC012283CE018E5A9E4FFC018081918146
:10244000FC012281CE018E5A9E4FFC018081918138
:10245000FC012183CE018E5A9E4FFC018081918127
:10246000FC012181CE018E5A9E4FFC018081918119
:10247000FC012083CE018E5A9E4FFC018081918108
:10248000FC01858162E00E94B44A61E070E080E076
:1024900090E00E94B949CE018E5A9E4FFC01808186
:1024A0009181FC01858161E00E94B44ACE018E5A7F
:1024B0009E4FFC0180819181FC01858160E00E943A
:1024C000F04ACE018E5A9E4FFC0180819181FC0121
:1024D0008681882F90E04597029728F48CE494E059
:1024E0000E94F24907C064E170E080E090E00E9441
:1024F000B9490000CE018E5A9E4FFC018081918126
:10250000FC01858162E00E94B44ACE018E5A9E4F42
:10251000FC0180819181FC018289882F90E00E94DA
:10252000F249CE018F5A9E4F00D9CE018E5A9E4F4E
:10253000FC018081918160E0B7D1DC01CB0121E019
:102540008F3F9F4FAF4FBF4F09F020E0222399F0FC
:10255000CE018E5A9E4FFC0180819181FC01118A2F
:10256000CE018E5A9E4FFC0180819181FC01F18841
:1025700000E010E072C0CE018E5A9E4FFC018081B7
:10258000918161E091D1DC01CB0121E08F3F9F4F30
:10259000AF4FBF4F09F020E0222399F0CE018E5AB1
:1025A0009E4FFC0180819181FC01118ACE018E5ADF
:1025B0009E4FFC0180819181FC01F18800E010E0D8
:1025C0004CC01A82198289819A81803591050CF05C
:1025D00042C0CE018E5A9E4FFC018081918160E005
:1025E00063D1DC01CB0129813A81220F331F220FF5
:1025F000331FAE014F5F5F4F240F351F205F3F4FEA
:10260000F90180839183A283B38389819A818C01AC
:102610000F5F1F4FCE018E5A9E4FFC01808191812A
:1026200061E042D1DC01CB019801220F331F220F60
:10263000331FAE014F5F5F4F240F351F205F3F4FA9
:10264000F90180839183A283B38389819A81029661
:102650009A838983B8CF01E010E0CE018F5A9E4F54
:1026600073D80130110509F00DC100001C821B82D6
:102670008B819C8188970CF0A7C08B819C81880FEF
:10268000991F880F991F880F991F9E012F5F3F4F39
:10269000820F931F4096FC0180819181A281B381BA
:1026A00089879A87AB87BC878B819C81880F991F0C
:1026B0000196880F991F880F991F9E012F5F3F4F2A
:1026C000820F931F4096FC0180819181A281B3818A
:1026D0008D879E87AF87B88B89859A85AB85BC85AA
:1026E0008F3F9F4FAF4FBF4F49F08D859E85AF8580
:1026F000B8898F3F9F4FAF4FBF4F89F4CE018E5A9D
:102700009E4FFC0180819181FC01118ACE018E5A7D
:102710009E4FFC0180819181FC01F188B3C08B81C7
:102720009C8199230CF407969595879595958795A7
:10273000959587959E012E5A3E4FF9012081318152
:10274000280F391FF9012081422F440F9E012E5A74
:102750003E4FF90120813181820F931FFC0140839C
:102760002D853E854F85588989859A85AB85BC85A1
:1027700082179307A407B50708F58B819C819923DD
:102780000CF40796959587959595879595958795DA
:102790009E012E5A3E4FF90120813181280F391FA9
:1027A000F9012081422F41609E012E5A3E4FF901CE
:1027B00020813181820F931FFC0140838B819C819A
:1027C00001969C838B8354CFCE018E5A9E4FFC0181
:1027D00080819181FC018481282F30E0CE018E5AC6
:1027E0009E4FFC0180819181FC018081482F50E047
:1027F000CE018E5A9E4FFC0180819181FC01818126
:10280000882F90E0480F591FCE018E5A9E4FFC0131
:1028100080819181FC018281882F90E0480F591FAF
:10282000CE018E5A9E4FFC0180819181FC018381F3
:10283000882F90E0840F951F99272817390791F466
:10284000CE018E5A9E4FFC018081918121E0FC01D6
:10285000218BCE018E5A9E4FFC0180819181FC011B
:10286000F18810C0CE018E5A9E4FFC01808191816B
:10287000FC01118ACE018E5A9E4FFC01808191810C
:10288000FC01F1888F2DCC5ADE4F0FB6F894DEBFD5
:102890000FBECDBFDF91CF911F910F91FF90DF90C1
:1028A000CF90BF90AF900895CF93DF93CDB7DEB7B1
:1028B0002A970FB6F894DEBF0FBECDBF99878887E1
:1028C0006A871A8219828A85882329F088859985E2
:1028D000FC01878101C080E08B8388859985FC019C
:1028E0008085882F90E0880F991F8758914F9D838E
:1028F0008C838C819D81FC0125913491CF013F8394
:102900002E839D838C838E819F81FC01208188850D
:102910009985FC018781282381E09B81291709F093
:1029200080E08823F9F089819A819C012F5F3F4FD5
:102930003A8329839C0140E050E088859985FC0119
:1029400085859685A785B08961E0281739074A07EC
:102950005B0708F460E0662309F4BFCF8FEF9FEFB9
:10296000DC0105C089819A81CC01A0E0B0E0BC0106
:10297000CD012A960FB6F894DEBF0FBECDBFDF9112
:10298000CF910895CF93DF931F921F92CDB7DEB7FB
:102990009A83898387EE93E00E94873C00000F9022
:1029A0000F90DF91CF910895CF93DF9300D01F92C6
:1029B000CDB7DEB79A8389837C836B8389819A81C3
:1029C000019739F48B819C81019619F488E293E098
:1029D000D9DF00000F900F900F900F90DF91CF91F3
:1029E0000895CF93DF93CDB7DEB76FEF7FEF81E030
:1029F00090E0DADFDF91CF910895CF93DF9300D09D
:102A00001F92CDB7DEB79A8389837C836B838981DC
:102A10009A81FC0180819181FC01208131814B816F
:102A200089819A81642FF90119950F900F900F9069
:102A30000F90DF91CF910895CF93DF931F921F9254
:102A4000CDB7DEB79A83898387EE93E00E94873CF7
:102A500089819A8140E061E064D189819A8120ED89
:102A600037E0FC013183208389819A8121E0FC01D8
:102A7000228389819A8121E0FC01238389819A81C3
:102A8000FC01148289819A81FC01158289819A81D5
:102A9000FC01168289819A8126E0FC012783298125
:102AA0003A8180E795E3ADE6B8E3F9018087918745
:102AB000A287B38781E00F900F90DF91CF910895A7
:102AC000CF92EF920F93CF93DF93CDB7DEB72997D5
:102AD0000FB6F894DEBF0FBECDBF9A8389837C8387
:102AE0006B834D832E830F83E886C98668E670E08A
:102AF00087EE93E00E94913D60E070E087EE93E006
:102B00007CDF89819A81698557D1682F87EE93E0B0
:102B10000E94DD3D89819A8168854ED1682F87EEBC
:102B200093E00E94DD3D89819A816F8145D1682FB4
:102B300087EE93E00E94DD3D6B817C8189819A81E3
:102B40002E814D81A5D2282F89819A81622F34D17F
:102B5000682F87EE93E00E94DD3D89819A816E8126
:102B60002BD1682F87EE93E00E94DD3D89819A8109
:102B70006D8122D1682F87EE93E00E94DD3D8B812D
:102B800020E3280F89819A81622F16D1682F87EE62
:102B900093E00E94DD3D60E070E087EE93E02DDF82
:102BA00087EE93E00E94CC3D000029960FB6F89482
:102BB000DEBF0FBECDBFDF91CF910F91EF90CF90D1
:102BC0000895CF93DF93CDB7DEB764970FB6F8942F
:102BD000DEBF0FBECDBF9A8B898B7C8B6B8B68E67B
:102BE00070E087EE93E00E94913D60E070E087EE38
:102BF00093E003DF87EE93E00E94CC3D47E050E096
:102C000068E670E087EE93E00E945C3D87EE93E01B
:102C10000E945C3E21E0892B09F020E0222309F08C
:102C2000F5CF86E090E09A83898389819A81992300
:102C3000F4F087EE93E00E94753E282F8B899C89E3
:102C4000622FA1D0282F30E089819A81880F991FA7
:102C5000AE014F5F5F4F840F951F0296FC013183D9
:102C6000208389819A8101979A838983DECF87EEB9
:102C700093E00E94CC3D8B819C818053984F9C01B6
:102C80008B899C89FC01318320838D819E81282F33
:102C90008B899C89FC0122838F819885282F8B89C1
:102CA0009C89FC01238389859A85282F8B899C899F
:102CB000FC0127838B859C85282F8B899C89FC01AF
:102CC00024838D859E85282F8B899C89FC012583F3
:102CD0008F859889282F8B899C89FC0126838B8975
:102CE0009C8984D1DC01CB012B893C89F901808747
:102CF0009187A287B38789899A892B893C894CE07F
:102D0000F901DC0101900D924A95E1F789899A89D0
:102D100064960FB6F894DEBF0FBECDBFDF91CF91A2
:102D20000895CF93DF9300D01F921F92CDB7DEB7E7
:102D30009B838A836C834D838A819B816EE05DD205
:102D400089838D81882321F089818064898303C0F0
:102D500089818F7B89838C81882321F089818B777E
:102D6000898303C08981806889838A819B814981A5
:102D70006EE01DD200000F900F900F900F900F90FB
:102D8000DF91CF910895CF93DF9300D0CDB7DEB719
:102D90009A8389836B838B8182958F70880F982F9C
:102DA000990F990F980F8B818F70890F0F900F904B
:102DB0000F90DF91CF910895CF93DF9300D0CDB7DF
:102DC000DEB79A8389836B839B818DEC989F812DDD
:102DD0001124869586958695282F2295207F9B81A4
:102DE0008DEC989F812D1124869586958695880F68
:102DF000382F330F330F830F392F381B832F820F58
:102E00000F900F900F90DF91CF9108950F93CF9374
:102E1000DF93CDB7DEB727970FB6F894DEBF0FBEAE
:102E2000CDBF9A8389837C836B834D832E830F83ED
:102E30008B819C819C0140E050E0DA01C901880F40
:102E4000991FAA1FBB1F820F931FA41FB51F880FB6
:102E5000991FAA1FBB1F880F991FAA1FBB1F880F8E
:102E6000991FAA1FBB1F9C01AD018D81882F90E087
:102E7000A0E0B0E0280F391F4A1F5B1F8CE390E0F1
:102E8000DC010E94724C9B01AC018E81882F90E086
:102E9000A0E0B0E0280F391F4A1F5B1F8CE390E0D1
:102EA000DC010E94724C9B01AC018F81882F90E065
:102EB000A0E0B0E0820F931FA41FB51FBC01CD019D
:102EC00027960FB6F894DEBF0FBECDBFDF91CF912E
:102ED0000F910895CF93DF9300D01F92CDB7DEB747
:102EE0009A8389837C836B838B819C8183709927F0
:102EF00021E0892B09F020E0822F0F900F900F9096
:102F00000F90DF91CF910895CF93DF93CDB7DEB7C8
:102F10002C970FB6F894DEBF0FBECDBF98878F8376
:102F20007A8769874B872C8789859A85805D97404A
:102F30009A8789878C85882F90E09A83898381E09E
:102F40008B839B818B859817D0F48B81882F90E0A1
:102F5000019788539C4F9D838C838C819D81FC01BC
:102F600084918E838E81882F90E029813A81820F0F
:102F7000931F9A8389838B818F5F8B83E2CF8B85AD
:102F8000823051F429853A858F819885B901A2DF75
:102F9000882311F081E001C080E0882329F0898135
:102FA0009A8101969A83898349855A858DE691E0B5
:102FB000489F9001499F300D589F300D1124898101
:102FC0009A81280F391F89859A850396969587954A
:102FD00096958795820F931F01972C960FB6F894BC
:102FE000DEBF0FBECDBFDF91CF910895FF920F934B
:102FF0001F93CF93DF9300D000D0CDB7DEB79E8371
:103000008D838D819E81FC0106818D819E81FC01D5
:10301000F5808D819E81FC0114818D819E81FC0152
:1030200023818D819E81FC0132818D819E81FC01F5
:10303000608171818D819E81432F66DFBC018D810E
:103040009E812F2D412FE2DEDC01CB0189839A8303
:10305000AB83BC8389819A81AB81BC8180599A4CB6
:10306000A249B74C89839A83AB83BC8389819A81B7
:10307000AB81BC81BC01CD0126960FB6F894DEBFB2
:103080000FBECDBFDF91CF911F910F91FF9008959B
:10309000CF93DF93CDB7DEB72A970FB6F894DEBF94
:1030A0000FBECDBF9E838D8378876F8349872A8724
:1030B00081E09985933008F080E0882F90E02F819F
:1030C0003885A901481B590BCA0198878F838F81C6
:1030D00098859C0136952795369527958F819885FB
:1030E000A901480F591F8F819885969587959695C8
:1030F00087959C01ABE7B4E10E94634C9695879558
:10310000481B590B8F819885929582958F708927DE
:103110009F7089279C01AEE3BAE00E94634C9A013C
:10312000280F391F8985882F90E001978C529C4F7A
:103130009A83898389819A81FC0184918B838B8115
:10314000882F90E0280F391F8A85882F90E0A901E9
:10315000480F591F9A01A3E9B4E20E94634C9A01F7
:10316000281B390B36952795820F931F9C013695A6
:10317000279536952795C901880F991F880F991FA4
:10318000880F991F821B930B9A01281B390B2C83E4
:103190008C81882311F487E001C08C812A960FB6B8
:1031A000F894DEBF0FBECDBFDF91CF910895CF93CE
:1031B000DF9300D01F92CDB7DEB79A8389836B83EC
:1031C0004C8368E670E087EE93E00E94913D6B814E
:1031D00087EE93E00E94DD3D6C8187EE93E00E94D4
:1031E000DD3D87EE93E00E94CC3D00000F900F90F4
:1031F0000F900F90DF91CF910895CF93DF9300D080
:103200001F92CDB7DEB79B838A836C8368E670E03C
:1032100087EE93E00E94913D6C8187EE93E00E94DF
:10322000DD3D87EE93E00E94CC3D41E050E068E652
:1032300070E087EE93E00E945C3D87EE93E00E9491
:103240005C3E21E0892B09F020E0222309F0F5CF34
:1032500087EE93E00E94753E898387EE93E00E949B
:10326000CC3D89810F900F900F900F90DF91CF91FF
:103270000895CF93DF9300D0CDB7DEB79B838A83C9
:103280008091F403882331F18FE590E0FC01808187
:103290008983F8948091F4038130C9F48DE390E040
:1032A000FC0180818093F6038DE390E02DE330E014
:1032B000F9012081322F2091F50320952323FC0171
:1032C00020838FE590E02981FC01208303C0898160
:1032D0008093F6038CE490E02A81FC0120838DE446
:1032E00090E02B81FC01208300000F900F900F9045
:1032F000DF91CF910895CF93DF931F92CDB7DEB7C3
:103300008091F4038823E1F08FE590E0FC01808157
:103310008983F8948091F403813061F48DE390E027
:103320002091F603FC0120838FE590E02981FC01C8
:10333000208306C08FE590E02091F603FC012083F6
:1033400000000F90DF91CF910895CF93DF931F92EC
:103350001F92CDB7DEB79A8389832CEA32E0898148
:103360009A81FC013183208389819A81FC01138237
:10337000128200000F900F90DF91CF910895CF93AC
:10338000DF931F921F92CDB7DEB79A83898389811D
:103390009A81FC0186890F900F90DF91CF9108955B
:1033A000CF93DF93CDB7DEB727970FB6F894DEBF84
:1033B0000FBECDBF9E838D836F838F81282F30E01A
:1033C000C901880F991F880F991F880F991FAC0199
:1033D000421B530B9A018D819E8102969A838983A9
:1033E00089819A81FC0145915491CF015C834B8383
:1033F0009A8389838B819C81820F931F27960FB6B6
:10340000F894DEBF0FBECDBFDF91CF910895CF936B
:10341000DF9300D000D0CDB7DEB79E838D838D8142
:103420009E819A83898389819A81FC0125913491B7
:10343000CF013C832B839A8389838B819C81269641
:103440000FB6F894DEBF0FBECDBFDF91CF910895C8
:10345000CF93DF9300D000D0CDB7DEB79A838983B6
:103460007C836B835E834D8389819A816EDF2FE03D
:1034700032E089819A81FC013183208389819A819C
:103480002B813C81FC013583248389819A812D81A4
:103490003E81FC013783268389819A81FC01248146
:1034A000358189819A81FC013187208789819A81C0
:1034B000FC012681378189819A81FC01338722872B
:1034C00089819A81FC01168A89819A81FC0115867D
:1034D000148689819A81FC012485358589819A81A8
:1034E000FC013787268789819A8121E0FC01258BA1
:1034F00089819A81FC01258989819A81FC01248B2B
:1035000089819A812FEF3FEFFC01338B228B8981D8
:103510009A81FC012289338989819A81FC01318B4E
:10352000208B89819A8121E0FC01278B89819A81F6
:10353000FC01108E89819A81FC01128E118E00008F
:1035400026960FB6F894DEBF0FBECDBFDF91CF91A8
:103550000895EF92FF920F931F93CF93DF93CDB710
:10356000DEB76E970FB6F894DEBF0FBECDBF9C8B53
:103570008B8B7E8B6D8B588F4F8B3A8F298F1C8F47
:103580000B8FFE8EED8E2B8D3C8D8F89988DA90132
:10359000481B590BCA0199231CF4919581959109F7
:1035A000AC01298D3A8D8D899E89B901681B790BF3
:1035B000CB0199231CF491958195910921E0841701
:1035C00095070CF020E0822F90E09E838D838D8103
:1035D0009E81892BC1F08D899E8998878F838F89E1
:1035E000988D9E8B8D8B8F819885988F8F8B898DF1
:1035F0009A8D9A8789878B8D9C8D9A8F898F8985E3
:103600009A859C8F8B8F2D893E89898D9A8D821703
:103610009307C4F48D899E899C878B87898D9A8DA9
:103620009E8B8D8B8B859C859A8F898F8F89988DAA
:103630009E878D878B8D9C8D988F8F8B8D859E859A
:103640009C8F8B8F298D3A8D8D899E89D901A81BDE
:10365000B90BCD01988B8F872B8D3C8D8F89988DE1
:10366000F901E81BF90BCF0199231CF49195819581
:1036700091099A8B898B8F85988999230CF40196EF
:10368000959587959A8389832F89388D8B8D9C8D0D
:10369000281739072CF481E090E09C838B8304C0C9
:1036A0008FEF9FEF9C838B832D893E89898D9A8D27
:1036B000821793070CF44DC08D819E81892B99F060
:1036C0008B899C89DC018D919C910C96DC01ED919C
:1036D000FC912D8D3E8D4D895E896F89788D8B890A
:1036E0009C89199512C08B899C89FC0180819181EC
:1036F0000C96DC01ED91FC912D8D3E8D4F89588DFE
:103700006D897E898B899C89199529813A8189895E
:103710009A89F901E81BF90BCF019A838983898182
:103720009A81992384F42F89388D8B819C81820F13
:10373000931F988F8F8B29813A818F859889820F6B
:10374000931F9A8389838D899E8901969E8B8D8B89
:10375000ABCF00006E960FB6F894DEBF0FBECDBFA4
:10376000DF91CF911F910F91FF90EF900895CF932C
:10377000DF931F921F92CDB7DEB79A838983000033
:103780000F900F90DF91CF910895CF93DF93CDB736
:10379000DEB728970FB6F894DEBF0FBECDBF9A8371
:1037A00089837C836B835E834D8338872F838981F4
:1037B0009A81DC018D919C910896DC01ED91FC9140
:1037C0002F8138854D815E816B817C8189819A81D1
:1037D0001995000028960FB6F894DEBF0FBECDBF36
:1037E000DF91CF9108950F931F93CF93DF93CDB7C0
:1037F000DEB72A970FB6F894DEBF0FBECDBF9A830F
:1038000089837C836B835E834D8338872F831A87FC
:10381000098789819A81DC018D919C914C96DC010C
:10382000ED91FC91A985BA852F8138854D815E8106
:103830006B817C8189819A818D01199500002A967E
:103840000FB6F894DEBF0FBECDBFDF91CF911F91B1
:103850000F9108950F931F93CF93DF93CDB7DEB7EA
:103860002A970FB6F894DEBF0FBECDBF9A83898327
:103870007C836B835E834D8338872F831A87098708
:1038800089819A81DC018D919C914E96DC01ED91AC
:10389000FC91A985BA852F8138854D815E816B8128
:1038A0007C8189819A818D01199500002A960FB635
:1038B000F894DEBF0FBECDBFDF91CF911F910F9166
:1038C0000895EF92FF920F931F93CF93DF93CDB79D
:1038D000DEB72C970FB6F894DEBF0FBECDBF9A832C
:1038E00089837C836B835E834D8338872F831A871C
:1038F0000987FC86EB8689819A81DC018D919C91F8
:103900008096DC01ED91FC910B851C85A985BA851B
:103910002F8138854D815E816B817C8189819A817F
:1039200078018D01199500002C960FB6F894DEBF32
:103930000FBECDBFDF91CF911F910F91FF90EF9000
:103940000895CF93DF931F921F92CDB7DEB79A836E
:10395000898300000F900F90DF91CF910895EF922F
:10396000FF920F931F93CF93DF93CDB7DEB72A97C4
:103970000FB6F894DEBF0FBECDBF9A8389837C83D8
:103980006B835E834D8338872F831A8709878981EC
:103990009A81DC018D919C910A96FC0120813181F4
:1039A00089819A81F901199589819A81DC018D912A
:1039B0009C914496DC01ED91FC912D813E818F819B
:1039C0009885820F931FDC01119709851A852B8139
:1039D0003C814D815E816B817C8189819A817801F6
:1039E0008D01199589819A81FC018081918146968A
:1039F000DC012D913C9189819A81F9011995000092
:103A00002A960FB6F894DEBF0FBECDBFDF91CF91DF
:103A10001F910F91FF90EF900895EF92FF920F93F7
:103A20001F93CF93DF93CDB7DEB72A970FB6F894E5
:103A3000DEBF0FBECDBF9A8389837C836B835E8399
:103A40004D8338872F831A87098789819A81DC0102
:103A50008D919C910A96FC012081318189819A8106
:103A6000F901199589819A81DC018D919C91449687
:103A7000DC01ED91FC912B813C818F819885820F37
:103A8000931F9C012150310909851A85AD81BE81A2
:103A90004D815E816B817C8189819A8178018D0164
:103AA000199589819A81FC01808191814696DC017A
:103AB0002D913C9189819A81F901199500002A96EE
:103AC0000FB6F894DEBF0FBECDBFDF91CF911F912F
:103AD0000F91FF90EF900895EF92FF920F931F9335
:103AE000CF93DF93CDB7DEB72E970FB6F894DEBF36
:103AF0000FBECDBF9C838B837E836D8358874F839E
:103B00003A8729871C870B87FE86ED868B819C81EF
:103B1000DC018D919C910A96FC01208131818B8181
:103B20009C81F90119958D819E819A8389832D81CC
:103B30003E8189859A85280F391F89819A8182174C
:103B40009307DCF48B819C81DC018D919C914096E4
:103B5000DC01ED91FC91AD85BE852B853C854F81C7
:103B6000588569817A818B819C818D011995898124
:103B70009A8101969A838983DACF8B819C81FC019B
:103B8000808191814696DC012D913C918B819C81B5
:103B9000F901199500002E960FB6F894DEBF0FBEFE
:103BA000CDBFDF91CF911F910F91FF90EF900895BE
:103BB000EF92FF920F931F93CF93DF9300D01F924A
:103BC000CDB7DEB79A8389837C836B8389819A81A1
:103BD000DC018D919C918096DC01ED91FC918981B5
:103BE0009A81DC011A964D915C911B9789819A818B
:103BF000DC0118962D913C9119976B817C8189810C
:103C00009A817B018A0140E050E060E070E0199504
:103C100000000F900F900F900F90DF91CF911F91A8
:103C20000F91FF90EF900895EF92FF920F931F93E3
:103C3000CF93DF93CDB7DEB760970FB6F894DEBFB2
:103C40000FBECDBF9E838D8378876F835A87498748
:103C50003C872B871E870D87F88AEF862F81388552
:103C60008B859C852817390791F529853A858D859F
:103C70009E858217930764F489859A859A83898340
:103C80008D859E859A87898789819A819E878D8770
:103C90008D819E81DC018D919C914C96DC01ED9192
:103CA000FC912D853E8589859A85A901481B590B74
:103CB000CA019C012F5F3F4FAF85B88949855A855E
:103CC0006F8178858D819E818D0119956BC02985C5
:103CD0003A858D859E852817390791F52F8138857E
:103CE0008B859C858217930764F48F8198859C83CC
:103CF0008B838B859C8598878F838B819C819C8708
:103D00008B878D819E81DC018D919C914E96DC018B
:103D1000ED91FC912B853C858F819885A901481BED
:103D2000590BCA019C012F5F3F4FAF85B889498568
:103D30005A856F8178858D819E818D01199532C05C
:103D40008D819E81DC018D919C910A96FC012081E0
:103D500031818D819E81F90119958D819E81DC01D2
:103D60008D919C914496DC01ED91FC910F85188911
:103D7000AD85BE852B853C8549855A856F817885C3
:103D80008D819E8178018D0119958D819E81FC0127
:103D9000808191814696DC012D913C918D819E819F
:103DA000F9011995000060960FB6F894DEBF0FBEBA
:103DB000CDBFDF91CF911F910F91FF90EF900895AC
:103DC000EF92FF920F931F93CF93DF93CDB7DEB7A0
:103DD0002C970FB6F894DEBF0FBECDBF9A838983B0
:103DE0007C836B835E834D8338872F831A87098793
:103DF000FC86EB8689819A81DC018D919C910A96E3
:103E0000FC012081318189819A81F901199589818B
:103E10009A81DC018D919C914296DC01ED91FC919F
:103E2000AB85BC852F8138854D815E816B817C811E
:103E300089819A818D01199589819A81FC018081FE
:103E400091814296DC01ED91FC912D813E81898525
:103E50009A85820F931FAC0141505109AB85BC85F7
:103E60002F8138856B817C8189819A818D0119959B
:103E700089819A81FC01808191814096DC01ED91DC
:103E8000FC91AB85BC8529853A854D815E816B812E
:103E90007C8189819A818D01199589819A81FC01A2
:103EA000808191814096DC01ED91FC912B813C81D8
:103EB0008F819885820F931FBC0161507109AB857A
:103EC000BC8529853A854D815E8189819A818D01E4
:103ED000199589819A81FC01808191814696DC0146
:103EE0002D913C9189819A81F901199500002C96B8
:103EF0000FB6F894DEBF0FBECDBFDF91CF911F91FB
:103F00000F91FF90EF900895CF92DF92EF92FF9282
:103F10000F931F93CF93DF93CDB7DEB768970FB69C
:103F2000F894DEBF0FBECDBF9C878B877E876D87E1
:103F3000588B4F873A8B298B1C8B0B8BFE8AED8A13
:103F4000D88ECF8A8B899C89079699230CF4079683
:103F50009595879595958795959587959F838E835C
:103F600019828B859C85DC018D919C910A96FC01C0
:103F7000208131818B859C85F90119951B821A82DC
:103F80002A813B818D899E89281739070CF065C0ED
:103F90001D821C822C813D818B899C8928173907C1
:103FA0000CF050C08C819D8187709927892B21F05E
:103FB0008981880F898326C04A815B818E819F8198
:103FC000489F9001499F300D589F300D11248C81DE
:103FD0009D8199230CF407969595879595958795DE
:103FE00095958795820F931F9C0189899A89820FE5
:103FF000931F9987888788859985FC0184918A8792
:104000008A85898389818823BCF48B859C85DC0122
:104010008D919C910C96DC01ED91FC912D853E8556
:104020008C819D81B901680F791F2F89388D4F854B
:1040300058898B859C8519958C819D8101969D83DE
:104040008C83A8CF8A819B8101969B838A838F85ED
:1040500098890196988B8F8793CF8B859C85FC01DF
:10406000808191814696DC012D913C918B859C85C8
:10407000F9011995000068960FB6F894DEBF0FBEDF
:10408000CDBFDF91CF911F910F91FF90EF90DF9007
:10409000CF900895AF92CF92DF92EF92FF920F935D
:1040A0001F93CF93DF93CDB7DEB7EB970FB6F8949E
:1040B000DEBF0FBECDBF98AB8FA77AAB69AB5CAB51
:1040C0004BAB2DAB1FAB0EABF9AEE8AECAAEABAE91
:1040D0008FA598A9DC0159968D919C915A97892BAF
:1040E00009F0C7C18FA598A9FC012085318589A950
:1040F0009AA9821793070CF00EC38FA598A9DC012B
:104100001A962D913C911B978BA99CA98217930716
:104110000CF001C38AAD282F30E0C901880F991F28
:10412000820F931F880F991F9C0189A99AA9820F5A
:10413000931F019799230CF4EEC28BAD882F90E06A
:104140009C01220F331F220F331F220F331F8BA915
:104150009CA9820F931F019799230CF4DCC28FA5B1
:1041600098A9FC01908D81E08927882331F08DA9E1
:10417000803B18F08DA98F5F8DAB8FA598A9DC01CE
:104180008D919C910A96FC01208131818FA598A97F
:10419000F90119951982898185300CF007C18DA923
:1041A000282F30E0C901880F991F880F991F280F09
:1041B000391F8981082E000C990B820F931F8052A2
:1041C0009C4F9F878E878E859F85FC018491888B6D
:1041D00088898A831B828B8188300CF0E3C08A81B6
:1041E000882F90E081709927892B09F465C08AADEA
:1041F000813021F58BAD813009F58FA598A9DC01BF
:104200008D919C910C96DC01ED91FC918B81282F76
:10421000880F330B8BA99CA9A901480F591F8981CD
:10422000282F880F330B89A99AA9B901680F791F24
:104230002EA93FA98FA598A91995AAC08FA598A9BD
:10424000FC01808191810E96DC01ED91FC918BAD9A
:10425000082F10E08AADC82ED12C8B81482F880FF3
:10426000550B8BAD882F90E0489F9001499F300DF2
:10427000589F300D11248BA99CA9D901A80FB91FF3
:104280008981482F880F550B8AAD882F90E0489F71
:104290009001499F300D589F300D112489A99AA98A
:1042A000B901680F791F2EA93FA98FA598A9790197
:1042B0009601AD0119956CC028AD39AD8EA99FA9A5
:1042C0002817390709F464C08AAD813021F58BAD18
:1042D000813009F58FA598A9FC01808191810C9608
:1042E000DC01ED91FC918B81282F880F330B8BA97A
:1042F0009CA9A901480F591F8981282F880F330BCA
:1043000089A99AA9B901680F791F28AD39AD8FA580
:1043100098A919953DC08FA598A9FC01808191812C
:104320000E96DC01ED91FC918BAD082F10E08AAD6B
:10433000C82ED12C8B81482F880F550B8BAD882F21
:1043400090E0489F9001499F300D589F300D1124F7
:104350008BA99CA9D901A80FB91F8981482F880F63
:10436000550B8AAD882F90E0489F9001499F300DF2
:10437000589F300D112489A99AA9B901680F791F96
:1043800028AD39AD8FA598A979019601AD01199590
:104390008B818F5F8B838A81882F90E0959587959D
:1043A0008A8319CF89818F5F8983F5CE28AD39AD96
:1043B0008EA99FA92817390709F44DC08AAD81300D
:1043C000E1F48BAD8130C9F48FA598A9FC018081FF
:1043D00091814096DC01ED91FC9189A99AA9BC01DB
:1043E0006B5F7F4F28AD39AD4BA95CA98FA598A90C
:1043F000890128E030E019952EC08FA598A9FC010D
:10440000808191810E96DC01ED91FC918BAD882F1E
:1044100090E08C01000F111F000F111F000F111FE2
:104420008AADA82FB0E08AAD282F30E0C901880FEF
:10443000991F880F991F280F391F89A99AA9B901B7
:10444000680F791F28AD39AD4BA95CA98FA598A934
:1044500079019D0119958FA598A9FC018081918111
:104460004696DC012D913C918FA598A9F9011995EB
:1044700053C18FA598A9DC0159968D919C915A97AB
:1044800004969A8B898B89899A89FC0184918B8BFC
:104490008B899DA9F92FF81B8F2F8DAB8FA598A91C
:1044A000DC0159968D919C915A976DA90E94D01963
:1044B0009D8B8C8B8FA598A9FC01818D928D0E947C
:1044C000071A9F8B8E8B8C899D89998F888F888DF9
:1044D000998DFC0125913491CF013B8F2A8F998FC3
:1044E000888F8A8D9B8D9D838C838C899D89029674
:1044F0009D8F8C8F8C8D9D8DFC0184918E8F8E8DE8
:104500008F8F8C899D89039699A388A388A199A1EF
:10451000FC0184918AA38AA18BA38C899D8905962D
:104520009DA38CA38CA19DA1FC0184918EA38EA13F
:104530008FA38C899D89069699A788A788A599A598
:10454000FC0184918AA78AA58BA7188619861B86E9
:104550001A861D861C868AAD823018F48BAD823097
:1045600060F08FA1082E000C990B9B878A878BA582
:10457000082E000C990B9D878C878FA598A9DC01CC
:104580008D919C910A96FC01208131818FA598A97B
:10459000F90119951F829F818BA1981708F0ADC072
:1045A0001E829E818F8D981708F0A3C0898591E0A7
:1045B000980F9987882F90E08770992721E0892BA1
:1045C00009F020E02223A1F08C819D819C012F5FC6
:1045D0003F4F3D832C832E893F89820F931F9DA7D8
:1045E0008CA78CA59DA5FC0184918EA78EA588879C
:1045F000888588230CF076C08AAD813071F58BAD4B
:10460000813059F58FA598A9DC018D919C910C966C
:10461000DC01ED91FC918BA5282F880F330B8BA922
:104620009CA9280F391F8F81882F90E0A901480F7E
:10463000591F8FA1282F880F330B89A99AA9280FFA
:10464000391F8E81882F90E0B901680F791F2EA93C
:104650003FA98FA598A9199545C08FA598A9FC01D8
:10466000808191810E96DC01ED91FC918BAD082F3C
:1046700010E08AADC82ED12C8F81282F30E08C8598
:104680009D85A901480F591F8BAD882F90E0489F49
:104690009001499F300D589F300D11248BA99CA982
:1046A000D901A80FB91F8E81282F30E08A859B85FC
:1046B000A901480F591F8AAD882F90E0489F9001AB
:1046C000499F300D589F300D112489A99AA9B9012D
:1046D000680F791F2EA93FA98FA598A97901960186
:1046E000AD0119958885880F88878E818F5F8E83AD
:1046F00058CF8F818F5F8F834ECF8FA598A9FC01F4
:10470000808191814696DC012D913C918FA598A9DD
:10471000F901199501C00000EB960FB6F894DEBFC1
:104720000FBECDBFDF91CF911F910F91FF90EF9002
:10473000DF90CF90AF900895AF92CF92EF92FF921B
:104740000F931F93CF93DF93CDB7DEB7A4970FB628
:10475000F894DEBF0FBECDBF99A388A36AA388A13A
:1047600099A1FC01818D928D892B09F0A8C08AA1A5
:104770008A30F1F488A199A1FC011586148688A1DC
:1047800099A1FC012685378588A199A1FC0185891D
:10479000882F90E0880F991F880F991F880F991F05
:1047A000280F391F88A199A1FC0137872687CBC123
:1047B0008AA18D3009F4C7C188A199A1FC0187891C
:1047C0008823D1F188A199A1FC014485558588A150
:1047D00099A1FC018489282F30E0C901880F991F15
:1047E000820F931F880F991F9A01280F391F88A1E4
:1047F00099A1FC018085918582179307ECF488A12B
:1048000099A1FC011586148688A199A1FC01268531
:10481000378588A199A1FC018589882F90E0880FB0
:10482000991F880F991F880F991F280F391F88A17A
:1048300099A1FC013787268788A199A1FC01B58938
:1048400088A199A1FC01A48988A199A1FC010288F1
:10485000F389E02DFCA3EBA388A199A1FC01208999
:10486000318988A199A1FC014685578588A199A124
:10487000FC016485758588A199A1AB2ECA2EEBA099
:10488000FCA089012AA106DC88A199A1FC0144852C
:10489000558588A199A1FC018489282F30E0C901A0
:1048A000880F991F820F931F880F991F9A01280F55
:1048B000391F88A199A1FC013587248744C18AA1A9
:1048C0008A3079F588A199A1FC011586148688A102
:1048D00099A1FC018589482F50E088A199A1FC018C
:1048E000818D928D08969A83898389819A81FC01B2
:1048F00084918B838B81282F30E0429FC001439F9E
:10490000900D529F900D112428A139A1F9012685FF
:104910003785280F391F88A199A1FC013787268781
:1049200012C18AA18D3009F40EC188A199A1FC01A0
:10493000818D928D04969D838C838C819D81FC0159
:1049400084918E838E818F839AA18F81981798F09E
:1049500088A199A1FC01818D928D069699878887FF
:1049600088859985FC0184918A879A858AA1981700
:1049700010F081E001C080E0882309F4E4C09AA12E
:104980008F81292F281B88A199A1FC01818D928DEF
:10499000622F0E94D0199C878B878B859C850296FD
:1049A0009E878D878D859E85FC0184918F878F855D
:1049B000888B8B859C8503969A8B898B89899A89AC
:1049C000FC0184918B8B8B898C8B8889882309F4DB
:1049D00094C08C89882309F490C08B859C850596AA
:1049E0009E8B8D8B8D899E89FC0184918F8B8F8905
:1049F000082E000C990B998F888F88A199A1FC0132
:104A00008789882309F451C088A199A1FC012485D4
:104A1000358588A199A1FC018489682F70E0888977
:104A2000482F50E0888D998D480F591F649FC00111
:104A3000659F900D749F900D1124280F391F88A138
:104A400099A1FC01808591858217930774F588A14F
:104A500099A1FC011586148688A199A1FC0185897C
:104A6000482F50E088A199A1FC01818D928D089674
:104A70009B8F8A8F8A8D9B8DFC0184918C8F8C8D6E
:104A8000282F30E0429FC001439F900D529F900D10
:104A9000112428A139A1F90126853785280F391F4E
:104AA00088A199A1FC013787268788A199A1FC01DB
:104AB000B58988A199A1FC01A48988A199A1FC01CB
:104AC0000288F389E02DFCA3EBA388A199A1FC0146
:104AD0002089318988A199A1FC014685578588A143
:104AE00099A1FC016485758588A199A1AB2ECA2E78
:104AF000EBA0FCA089012AA1CDDA8B859C850496C8
:104B00009E8F8D8F8D8D9E8DFC0184918F8F8F8DCB
:104B1000482F50E088A199A1FC018489282F30E01A
:104B2000429FC001439F900D529F900D112428A1D8
:104B300039A1F90124853585280F391F88A199A14C
:104B4000FC013587248781E090E0A4960FB6F894A5
:104B5000DEBF0FBECDBFDF91CF911F910F91FF90B0
:104B6000EF90CF90AF900895CF93DF9300D0CDB763
:104B7000DEB79A8389836B8389819A814B816B81AC
:104B800007D000000F900F900F90DF91CF91089504
:104B9000CF93DF9300D01F92CDB7DEB79A8389837E
:104BA0006B834C838B81882311F02B8101C021E022
:104BB00089819A81FC01248B8C81882311F02C81BE
:104BC00001C021E089819A81FC01258B00000F90B2
:104BD0000F900F900F90DF91CF910895CF93DF93B7
:104BE00000D0CDB7DEB79A8389836B838B81282F62
:104BF000237089819A81FC01268B89819A81FC012D
:104C00008689882F90E08130910509F182309105E5
:104C10001CF4892B39F030C08230910519F00397CC
:104C2000B1F02AC089819A81FC0124813581898172
:104C30009A81FC013187208789819A81FC01268134
:104C4000378189819A81FC013387228715C0898148
:104C50009A81FC012681378189819A81FC01318703
:104C6000208789819A81FC012481358189819A81FB
:104C7000FC0133872287000000000F900F900F90F7
:104C8000DF91CF910895CF93DF9300D0CDB7DEB7FA
:104C90009A8389836B8300000F900F900F90DF91B0
:104CA000CF910895CF93DF931F92CDB7DEB789835D
:104CB0008EE490E02981FC01208300008DE490E0E7
:104CC000FC0180818095881F8827881F882309F030
:104CD000F5CF8EE490E0FC0180810F90DF91CF91C1
:104CE0000895CF93DF93CDB7DEB72F970FB6F89423
:104CF000DEBF0FBECDBF9F878E878E859F859A832F
:104D0000898380E099E0ADE3B0E08B839C83AD8341
:104D1000BE8381E08F83188680E092E1AAE7B0E04D
:104D200089879A87AB87BC871D868D858630E8F496
:104D30002B813C814D815E8189859A85AB85BC85BF
:104D4000281739074A075B0780F489859A85AB8560
:104D5000BC85B695A7959795879589879A87AB87E0
:104D6000BC878D858F5F8D87E0CF8D85863011F470
:104D700087E08D879D8581E089278D878F818823B6
:104D800011F480E701C080E598859C70292F282BBD
:104D90008D85882F90E0959587958370822B282F9D
:104DA00089819A81FC0120838D85282F217089813A
:104DB0009A81FC01218300002F960FB6F894DEBF84
:104DC0000FBECDBFDF91CF9108958F929F92AF928A
:104DD000BF92CF92DF92EF92FF920F93CF93DF9328
:104DE000CDB7DEB72F970FB6F894DEBF0FBECDBF9D
:104DF0009A8389836B834C833E832D830F83C8867C
:104E0000D986EA86FB868C869D86AE86BF868C8197
:104E1000482F50E08B81282F30E089819A81B90199
:104E20000E94281A2BE332E089819A81FC013183A8
:104E3000208389819A81FC01148E138E8D819E813D
:104E4000892B19F08D819E8102C087EE93E0298124
:104E50003A81F901968F858F89819A81FC0110A290
:104E6000178E89819A812FEFFC0124A389819A8171
:104E70002FEFFC0125A389819A812FEFFC0126A346
:104E800089819A812FEFFC0127A389819A812F8143
:104E9000FC0120A729813A8188859985AA85BB854F
:104EA000F90185AB96ABA7ABB0AF29813A818C8570
:104EB0009D85AE85BF85F90181AF92AFA3AFB4AF39
:104EC00089819A81CE960DDF00002F960FB6F89457
:104ED000DEBF0FBECDBFDF91CF910F91FF90EF905E
:104EE000DF90CF90BF90AF909F908F900895CF9319
:104EF000DF931F921F92CDB7DEB79A8389832BE38E
:104F000032E089819A81FC013183208389819A81F1
:104F1000FC01878D90A1892B61F089819A81FC0128
:104F2000878D90A10E94144D89819A81FC0110A265
:104F3000178E00000F900F90DF91CF910895CF93BF
:104F4000DF93CDB7DEB727970FB6F894DEBF0FBE5D
:104F5000CDBF9E838D836F838D819E81FC01858D66
:104F6000968D892BE9F18D819E81FC0181A1282FED
:104F7000880F330B8D819E81FC01858D968DB90143
:104F80000E94913D8D819E81FC01858D968DFC0155
:104F900080819181FC01208131818D819E81FC0184
:104FA000858D968D60E0F90119958D819E81FC01BA
:104FB000858D968DFC0180819181FC01208131815C
:104FC0008D819E81FC01858D968D6F81F9011995EA
:104FD0008D819E81FC01858D968D0E94CC3D88C07F
:104FE0008D819E81FC0185A596A52D813E81F901CB
:104FF00025A536A5F9012081422F2D813E81F90199
:1050000023A920952423FC0120838D819E819A83EE
:1050100089838F818B8389819A81FC01838D948D13
:10502000892B19F08B813EDE63C080E88C838C81F4
:10503000882309F45DC09B818C8189238823A1F09A
:1050400089819A81FC0181A592A529813A81F90182
:1050500021A532A5F901408129813A81F90121A9CF
:10506000242BFC01208315C089819A81FC0181A534
:1050700092A529813A81F90121A532A5F901208162
:10508000422F29813A81F90121A920952423FC018D
:10509000208389819A81FC0183A594A529813A8185
:1050A000F90123A534A5F901408129813A81F9014B
:1050B00022A9242BFC01208389819A81FC0183A5EC
:1050C00094A529813A81F90123A534A5F90120810C
:1050D000422F29813A81F90122A920952423FC013C
:1050E00020838C81882F90E0959587958C839FCF26
:1050F000000027960FB6F894DEBF0FBECDBFDF913C
:10510000CF910895CF93DF93CDB7DEB761970FB6F8
:10511000F894DEBF0FBECDBF9E878D87788B6F87DB
:10512000498B8D859E85FC01858D968D892B09F493
:1051300092C08D859E85FC0181A1282F880F330B9D
:105140008D859E85FC01858D968DB9010E94913DCE
:105150008D859E85FC01858D968DFC0180819181D8
:10516000FC01208131818D859E85FC01858D968D88
:1051700060E0F901199581E090E09A83898389893B
:105180009FEF980F998B91E0882309F490E0992381
:1051900009F459C089819A81809768F18D859E852F
:1051A000FC01858D968D0E94CC3D8D859E85FC01F0
:1051B00081A1282F880F330B8D859E85FC01858D5D
:1051C000968DB9010E94913D8D859E85FC01858D4E
:1051D000968DFC0180819181FC01208131818D853A
:1051E0009E85FC01858D968D60E0F901199581E021
:1051F00090E09A8389838D859E85FC01858D968DAF
:10520000FC0180819181FC01208131818F85988909
:10521000AC014F5F5F4F588B4F879C838B838B8193
:105220009C81FC0184918D834D818D859E85FC013F
:10523000858D968D642FF901199589819A81019642
:105240009A8389839CCF8D859E85FC01858D968D63
:105250000E94CC3DA0C08D859E85FC0185A596A5AC
:105260002D853E85F90125A536A5F9012081422F1E
:105270002D853E85F90123A920952423FC01208357
:1052800089899FEF980F998B91E0882309F490E02A
:10529000992309F480C08F8598899C012F5F3F4F27
:1052A000388B2F879F838E838E819F81FC01849111
:1052B000888728858D859E859A8789872B8789850C
:1052C0009A85FC01838D948D892B19F08B85EADCFE
:1052D000D7CF80E88C878C85882391F29B858C853D
:1052E00089238823A1F089859A85FC0181A592A54F
:1052F00029853A85F90121A532A5F9014081298541
:105300003A85F90121A9242BFC01208315C0898548
:105310009A85FC0181A592A529853A85F90121A5E7
:1053200032A5F9012081422F29853A85F90121A969
:1053300020952423FC01208389859A85FC0183A57F
:1053400094A529853A85F90123A534A5F901408161
:1053500029853A85F90122A9242BFC01208389851E
:105360009A85FC0183A594A529853A85F90123A591
:1053700034A5F9012081422F29853A85F90122A916
:1053800020952423FC0120838C85882F90E095951F
:1053900087958C87A0CF000061960FB6F894DEBF8A
:1053A0000FBECDBFDF91CF910895CF92DF92EF92E4
:1053B000FF920F931F93CF93DF93CDB7DEB7AF97D5
:1053C0000FB6F894DEBF0FBECDBF9BA78AA76CA710
:1053D0004DA72EA70FA78AA59BA5FC01878D90A19D
:1053E000892B69F58AA59BA5FC01248135818AA5B5
:1053F0009BA5FC0186819781079699230CF407965B
:10540000959587959595879595958795AC01249F5A
:10541000C001259F900D349F900D11240E947C4C5B
:105420009C018AA59BA5FC0130A3278F8AA59BA57B
:10543000FC01878D90A1892B11F481E001C080E0EF
:10544000882311F080E031C38AA59BA5FED48AA5EC
:105450009BA5FC0186819781819754F18AA59BA524
:10546000FC01868197818054910999230CF401965F
:1054700095958795AC018AA59BA5FC0184819581B2
:105480008255910999230CF4019695958795BC0155
:105490008AA59BA5CC24C394D12C6894EE24E6F86D
:1054A000F12C02E510E020EE38E00E94841F28C0B5
:1054B0008AA59BA5FC0186819781809799230CF48E
:1054C000019695958795AC018AA59BA5FC018481E1
:1054D00095818357910999230CF4019695958795A9
:1054E000BC018AA59BA5CC24C394D12C6894EE243E
:1054F000E5F8F12C03E710E020EA3BE00E94841F6E
:105500002CA58AA59BA5FC0122A38AA59BA5FC012D
:10551000858D968D892BF9F08DA5882359F48AA560
:105520009BA5FC0186819781809711F42CE303C031
:105530002DE301C02DA58AA59BA5FC0121A38FA564
:10554000882309F45AC18AA59BA5FC01858D968DF7
:105550000E94873C52C18AA59BA5FC0186A161E0FF
:105560000E94B44A8AA59BA5FC0187A161E00E9424
:10557000B44A8AA59BA5FC0186A1082E000C990BB4
:105580008D5C914F9B838A838A819B81FC018491EE
:105590008C838C81882F90E0880F991F8D56914FB6
:1055A0009E838D838D819E81FC0125913491CF0155
:1055B00038872F839E838D838F8198859C018AA550
:1055C0009BA5FC0136A725A78AA59BA5FC0186A162
:1055D000082E000C990B8351924F9A8789878985F1
:1055E0009A85FC0184918B878AA59BA52B85FC015C
:1055F00023AB8AA59BA5FC0187A1082E000C990B63
:105600008D5C914F9D878C878C859D85FC01849155
:105610008E878E85882F90E0880F991F8D56914F29
:10562000988B8F878F859889FC0125913491CF01C4
:105630003A8B298B988B8F8789899A899C018AA5B7
:105640009BA5FC0130AB27A78AA59BA5FC0187A1E0
:10565000082E000C990B8351924F9C8B8B8B8B895E
:105660009C89FC0184918D8B8AA59BA52D89FC01C9
:1056700024AB8AA59BA5FC0187A590A92AA53BA5DB
:10568000F90127A530A9F90140812AA53BA5F90117
:1056900024A9242BFC0120838AA59BA5FC01838DD2
:1056A000948D892B39F08FA5882309F4A6C00E9418
:1056B000653FA3C08AA59BA5FC0184A161E00E946F
:1056C000B44A8AA59BA5FC0185A161E00E94B44A69
:1056D0008AA59BA5FC0184A1082E000C990B8D5C6A
:1056E000914F9F8B8E8B8E899F89FC018491888F2F
:1056F000888D882F90E0880F991F8D56914F9A8F33
:10570000898F898D9A8DFC0125913491CF013C8F31
:105710002B8F9A8F898F8B8D9C8D9C018AA59BA541
:10572000FC0132A721A78AA59BA5FC0184A1082E14
:10573000000C990B8351924F9E8F8D8F8D8D9E8D76
:10574000FC0184918F8F8AA59BA52F8DFC0121AB35
:105750008AA59BA5FC0185A1082E000C990B8D5CE8
:10576000914F99A388A388A199A1FC0184918AA350
:105770008AA1882F90E0880F991F8D56914F9CA386
:105780008BA38BA19CA1FC0125913491CF013EA359
:105790002DA39CA38BA38DA19EA19C018AA59BA553
:1057A000FC0134A723A78AA59BA5FC0185A1082E8F
:1057B000000C990B8351924F98A78FA38FA198A5A6
:1057C000FC01849189A78AA59BA529A5FC0122AB90
:1057D0008AA59BA5FC0183A594A52AA53BA5F90153
:1057E00023A534A5F9012081422F2AA53BA5F90163
:1057F00022A920952423FC0120838EA5882371F102
:105800008AA59BA5FC0180A5882344F18AA59BA5B8
:10581000FC0180A561E00E94B44A8AA59BA5FC0119
:1058200080A561E00E94F04A61E070E080E090E0D5
:105830000E94B9498AA59BA5FC0180A560E00E9451
:10584000F04A6AE070E080E090E00E94B9498AA5E1
:105850009BA5FC0180A561E00E94F04A8AA59BA55A
:10586000FC01858D968D892B91F08AA59BA5FC0165
:1058700085A996A9A7A9B0AD2AA53BA5F901258DB3
:10588000368DAC01BD01C9010E94A43C23C08AA58C
:105890009BA5FC01838D948D892B39F08AA59BA54E
:1058A000FC0186AD97AD0E9439198AA59BA5FC0124
:1058B00087A590A92AA53BA5F90127A530A9F9013B
:1058C0002081422F2AA53BA5F90124A92095242354
:1058D000FC01208324E08AA59BA5422F60E87DE09F
:1058E00011DC8AA59BA5FC01868197812FEF280FEB
:1058F0008AA59BA5622F23DB24E08AA59BA5422FC6
:1059000064E87DE0FFDB8AA59BA5FC0182A18130D4
:1059100011F420E101C024E18AA59BA5622F0FDBD1
:1059200024E08AA59BA5422F68E87DE0EBDB82E0BE
:1059300089838AA59BA52FE8FC0125AF8AA59BA595
:10594000FC01848195818038910579F48AA59BA515
:10595000FC0186819781809741F482E089838AA542
:105960009BA52FE8FC0125AF3EC08AA59BA5FC01A5
:105970008481958180389105C1F48AA59BA5FC019D
:10598000868197818034910581F482E189838AA59B
:105990009BA5FC0182A1813011F42FE901C02FECFD
:1059A0008AA59BA5FC0125AF1EC08AA59BA5FC016D
:1059B0008481958180369105B1F48AA59BA5FC016F
:1059C00086819781409779F482E089838AA59BA597
:1059D000FC0182A1813011F420E101C02FEA8AA5E7
:1059E0009BA5FC0125AF8AA59BA56AEDA8DA8AA52F
:1059F0009BA56981A4DA8AA59BA561E8A0DA8AA59E
:105A00009BA5FC0125AD8AA59BA5622F98DA8AA5E6
:105A10009BA569ED94DA8AA59BA5FC0182A1813042
:105A200011F422E201C021EF8AA59BA5622F87DA3B
:105A300026E08AA59BA5422F6CE87DE063DB8AA562
:105A40009BA5FC01858D968D892B91F08AA59BA540
:105A5000FC0181AD92ADA3ADB4AD2AA53BA5F90182
:105A6000258D368DAC01BD01C9010E94A43C1CC02E
:105A70008AA59BA5FC0187A590A92AA53BA5F901AC
:105A800027A530A9F90140812AA53BA5F90124A940
:105A9000242BFC0120838AA59BA5FC01838D948D7A
:105AA000892B11F00E947B1981E0AF960FB6F89414
:105AB000DEBF0FBECDBFDF91CF911F910F91FF9041
:105AC000EF90DF90CF900895CF93DF93CDB7DEB7FF
:105AD00028970FB6F894DEBF0FBECDBF9A83898397
