:100000000EC100008FC70000B8C70000E1C70000A4
:100010000C9413080C943E080C9469080C949408F2
:100020000C94BF082CC100002AC1000028C10000A8
:1000300026C1000024C1000022C1000020C1000030
:100040001EC1000038C300001AC1000018C1000022
:1000500016C1000014C1000012C100000C94EA088F
:100060000EC100000CC100000AC1000008C1000060
:1000700006C1000004C1000002C1000000C1000070
:1000800051C30000FCC00000FAC00000F8C000002E
:10009000F6C00000F4C00000F2C00000F0C0000094
:1000A000EEC00000ECC0000074C30000E8C0000017
:1000B000E6C00000E4C00000E2C00000A1C30000F0
:1000C000DEC00000DCC00000DAC00000D8C00000C4
:1000D000D6C00000D4C00000D2C00000D0C00000D4
:1000E000CEC000006C0736073E074A07570778075F
:1000F00085070E0A110A000A040A0A0A480A150AA4
:10010000190A1F0A230A270A2D0A310A350A480A42
:100110003B0A3F0A430A00000A0B02090C0D0E08B5
:1001200007030401000000000000000000000000C0
:1001300000000000000000000000000000000000BF
:10014000000012111000000000000000000000007C
:10015000000000000000000000000000010210206C
:1001600020080810204010204080020102010804ED
:100170000201010204081020408080402010080481
:1001800002018004020180402010080402010804DA
:10019000020101020408102040800102040810201E
:1001A0004080050505050705080808080202020247
:1001B0000A0A080804040404010101010101010103
:1001C0000303030303030303040707070C0C0C0CCE
:1001D0000C0C0C0C020202020606060606060606B7
:1001E0000B0B0B0B0B0B0B0B000022002500280048
:1001F0002B002E003100340002010000050108012F
:100200000B0100002100240027002A002D003000EF
:10021000330001010000040107010A01D201112489
:100220001FBECFEFD1E2DEBFCDBF00E00CBF12E0BA
:10023000A0E0B2E0E6ECF6E100E00BBF02C0079000
:100240000D92A231B107D9F722E0A2E1B2E001C0DC
:100250001D92A43BB207E1F711E0CFE0D1E000E04E
:1002600006C021970109802FFE010E94400BCE306D
:10027000D10780E00807A9F7D6D50C94610BC0CE52
:10028000CF93DF93CDB7DEB79091150281E0892738
:100290008093150280911502282F80910002909181
:1002A0000102622F0E94850A0000DF91CF9108951C
:1002B000CF93DF93CDB7DEB780910002909101021A
:1002C00061E00E94490A62E083E10E94490A42E03B
:1002D00050E060E471E084E0B2D569E070E082E172
:1002E00092E0AFD30000DF91CF910895CF93DF93D9
:1002F00000D01F92CDB7DEB71A82198289819A8108
:10030000843B91058CF489819A81BC0182E192E061
:1003100042D464E170E080E090E0CBD789819A819B
:1003200001969A838983EACF83EB90E09C838B8349
:100330008B819C8199238CF08B819C81BC0182E113
:1003400092E029D464E170E080E090E0B2D78B8144
:100350009C8101979C838B83EBCF00000F900F90C3
:100360000F900F90DF91CF910895CF93DF9300D03E
:100370001F92CDB7DEB79A8389837C836B83898193
:100380009A81019739F48B819C81019619F482E15D
:1003900092E023D300000F900F900F900F90DF9109
:1003A000CF910895CF93DF93CDB7DEB76FEF7FEF97
:1003B00081E090E0DADFDF91CF910895CF93DF9372
:1003C00000D01F921F92CDB7DEB789837B836A83EB
:1003D0005D834C838981882F90E08A559D4FFC0175
:1003E0008081881F8827881F882331F08A819B811C
:1003F000FC011182108272C08981282F30E0C9016E
:10040000880F991F820F931F880F991F880F991FBC
:100410009C018981882F90E08A559D4FFC01808145
:10042000082E000C990B280F391F8091AA02882FE3
:1004300090E0281739074CF58981282F30E0C90151
:10044000880F991F820F931F880F991F880F991F7C
:100450009C018981882F90E08A559D4FFC01808105
:10046000082E000C990B280F391FC901880F991FFE
:10047000820F931F8A5E9D4FFC01808186FB882737
:1004800080F9813011F481E001C080E0882331F1EE
:100490008981282F30E0C901880F991F820F931F8F
:1004A000880F991F880F991F9C018981882F90E0E0
:1004B0008A559D4FFC018081082E000C990B280F56
:1004C000391FC901880F991F820F931F8A5E9D4FA4
:1004D000FC0180818F7360E00E94850A8981882FEA
:1004E00090E09C012A553D4FF90120812F5F8A55EC
:1004F0009D4FFC0120838981282F30E0C901880F9E
:10050000991F820F931F880F991F880F991F9C01B5
:100510008981882F90E08A559D4FFC018081082EAB
:10052000000C990B280F391F8091AA02882F90E0A8
:10053000281739075CF48981882F90E08A559D4FF0
:10054000FC0180818C3014F481E001C080E08823BC
:1005500009F47EC08A819B81FC014081518189819F
:10056000282F30E0C901880F991F820F931F880F31
:10057000991F880F991F9C018981882F90E08A55C7
:100580009D4FFC018081082E000C990B280F391F0C
:10059000C901880F991F820F931F895E9D4FFC012F
:1005A000808191819A01280F391F8C819D81FC01E6
:1005B000318320838981282F30E0C901880F991F5A
:1005C000820F931F880F991F880F991F9C018981A3
:1005D000882F90E08A559D4FFC018081082E000CE9
:1005E000990B280F391FC901880F991F820F931F7C
:1005F0008A5E9D4FFC01808186FB882780F98823D5
:1006000009F450C08981282F30E0C901880F991F53
:10061000820F931F880F991F880F991F9C01898152
:10062000882F90E08A559D4FFC018081082E000C98
:10063000990B280F391FC901880F991F820F931F2B
:100640008A5E9D4FFC0180818F7361E05ED72AC076
:100650008A819B81FC0180819181049621E0803414
:100660009C4908F020E0222341F08C819D8120E408
:100670003CE9FC01318320830DC08A819B81FC0110
:10068000808191819C012C5F3F4F8C819D81FC0179
:10069000318320838981882F90E08A559D4F2FEFE9
:1006A000FC01208300000F900F900F900F900F908F
:1006B000DF91CF9108951F920F9200905F000F92EB
:1006C000112400905B000F922F933F934F935F9301
:1006D0006F937F938F939F93AF93BF93EF93FF930A
:1006E000CF93DF93CDB7DEB748E850E064E870E021
:1006F00081E064DE0000DF91CF91FF91EF91BF9127
:10070000AF919F918F917F916F915F914F913F91A9
:100710002F910F9000925B000F9000925F000F905E
:100720001F9018951F920F9200905F000F92112456
:1007300000905B000F922F933F934F935F936F93C3
:100740007F938F939F93AF93BF93EF93FF93CF9339
:10075000DF93CDB7DEB748E950E064E970E082E0AE
:100760002DDE0000DF91CF91FF91EF91BF91AF910E
:100770009F918F917F916F915F914F913F912F91B9
:100780000F9000925B000F9000925F000F901F90FF
:1007900018951F920F9200905F000F921124009005
:1007A0005B000F922F933F934F935F936F937F93D1
:1007B0008F939F93AF93BF93EF93FF93CF93DF9369
:1007C000CDB7DEB748EA50E064EA70E083E0F6DDDA
:1007D0000000DF91CF91FF91EF91BF91AF919F9179
:1007E0008F917F916F915F914F913F912F910F90DA
:1007F00000925B000F9000925F000F901F90189581
:100800001F920F9200905F000F92112400905B00E6
:100810000F922F933F934F935F936F937F938F9399
:100820009F93AF93BF93EF93FF93CF93DF93CDB796
:10083000DEB748E251E064E271E080E0BFDD000035
:10084000DF91CF91FF91EF91BF91AF919F918F91E8
:100850007F916F915F914F913F912F910F900092F7
:100860005B000F9000925F000F901F901895CF9340
:10087000DF931F92CDB7DEB789838981813001F57F
:1008800080E890E0FC01108281E890E022E0FC0129
:10089000208384E890E0FC011182108286E390E0DE
:1008A00026E330E0F90120812260FC0120838FE6FD
:1008B00090E02FE630E0F90120812260FC012083E6
:1008C00089818230C1F480E990E0FC01108281E9E5
:1008D00090E022E0FC01208384E990E0FC01118299
:1008E000108288E390E022E0FC01208381E790E021
:1008F00022E0FC01208389818330C1F480EA90E00A
:10090000FC01108281EA90E022E0FC01208384EA6D
:1009100090E0FC011182108289E390E022E0FC016A
:10092000208382E790E022E0FC01208389818823F4
:10093000C1F480E291E0FC01108281E291E022E0CA
:10094000FC01208384E291E0FC01118210828AE3A1
:1009500090E022E0FC01208383E790E022E0FC01AC
:10096000208300000F90DF91CF910895CF93DF9304
:100970001F921F92CDB7DEB78A83198289818C308E
:1009800030F58A81282F30E0C901880F991F820F26
:10099000931F880F991F880F991F9C018981882FA9
:1009A00090E0280F391FC901880F991F820F931FEC
:1009B0008A5E9D4FFC01808186FB882780F981300B
:1009C00011F481E005C089818F5F8983D7CF80E0F2
:1009D0000F900F90DF91CF910895CF93DF931F92E7
:1009E0001F92CDB7DEB79A8389838091AA028033A4
:1009F000E8F42091AA0281E0820F8093AA02898103
:100A00009A81FC01208389819A81FC018081282FB1
:100A100030E0C901880F991F820F931F895E9D4F97
:100A200028EB3BE0FC013183208305C089819A815A
:100A30002FEFFC01208300000F900F90DF91CF91EA
:100A40000895CF93DF9300D01F92CDB7DEB79A837E
:100A500089837C836B836B817C8189819A8120E689
:100A600039E040E252E007D00F900F900F900F90C6
:100A7000DF91CF910895CF93DF93CDB7DEB729975C
:100A80000FB6F894DEBF0FBECDBF9B838A837D83F4
:100A90006C835F834E83398728878A819B81FC0121
:100AA0008081803308F06AC08C8161E0F2D48A8151
:100AB0009B81FC018081282F30E08C81482F4F736F
:100AC000C901880F991F820F931F8A5E9D4F242FA3
:100AD0002F73FC013081307C232BFC01208320E22A
:100AE00032E08E819F81A901481B590BCA019923CD
:100AF0000CF403969595879595958795282F8A816F
:100B00009B81FC01218320E639E088859985A90134
:100B1000481B590BCA0199230CF4039695958795A8
:100B200095958795282F8A819B81FC0122838A8154
:100B30009B81FC0190818BEA989F812D11248695E1
:100B4000869586958983898111DF982F81E0892791
:100B5000882311F089818BDE8A819B81FC01808151
:100B6000282F30E0C901880F991F820F931F8A5EDA
:100B70009D4FFC0120812064FC0120838A819B81A0
:100B8000FC01808129960FB6F894DEBF0FBECDBF61
:100B9000DF91CF9108956F927F928F929F92AF9243
:100BA000BF92CF92DF92EF92FF920F931F93CF935A
:100BB000DF9300D01F92CDB7DEB79A8389837C8301
:100BC0006B838B819C81803292400CF05BC08B8167
:100BD0009C81992314F41C821B828B819C81853B10
:100BE000910524F084EB90E09C838B8389819A812A
:100BF000FC018281082E000C990B28E532E0A90146
:100C0000481B590BCA01880F991F880F991F092E7D
:100C1000000CAA0BBB0B29813A81F9012181022E1C
:100C2000000C330B48E850E0BA01621B730B9B01C8
:100C3000220F331F220F331F032E000C440B550BC2
:100C40006B817C813B01770F880899086B2F6F932C
:100C50006A2F6F93692F6F938F9359016A0114EB79
:100C6000E12EF12C00E010E020E030E0A901C40109
:100C7000B30179D40F900F900F900F90DC01CB014E
:100C80009C838B832B813C8189819A81B90114D00B
:100C900000000F900F900F900F90DF91CF911F9158
:100CA0000F91FF90EF90DF90CF90BF90AF909F900B
:100CB0008F907F906F900895CF93DF9300D000D0F6
:100CC000CDB7DEB79C838B837E836D838B819C81C4
:100CD000FC01808189838981803308F099C08B81F0
:100CE0009C81FC018181082E000C990B28E830E0E2
:100CF000A901481B590BCA019C01220F331F220F67
:100D0000331F8D819E8182179307A4F48B819C8170
:100D1000FC018181082E000C990B28E830E0A90124
:100D2000481B590BCA01880F991F880F991F9E8372
:100D30008D832AC08B819C81FC018281082E000C4E
:100D4000990B28E532E0A901481B590BCA019C0107
:100D5000220F331F220F331F8D819E8128173907E1
:100D60009CF48B819C81FC018281082E000C990BE4
:100D700028E532E0A901481B590BCA01880F991FC9
:100D8000880F991F9E838D838D819E8102979E83FC
:100D90008D838D819E81092E000CAA0BBB0B880FC1
:100DA000991FAA1FBB1F880F991FAA1FBB1F880F5F
:100DB000991FAA1FBB1F880F991FAA1FBB1FBB2308
:100DC0001CF40796A11DB11D689412F8B595A7955E
:100DD000979587951694D1F79E838D838FE590E044
:100DE000FC0180818A83F8948981282F30E04D812D
:100DF0005E81C901880F991F820F931F895E9D4FE5
:100E0000FC01518340838FE590E02A81FC0120831F
:100E1000000026960FB6F894DEBF0FBECDBFDF915F
:100E2000CF91089508957ED2FDDF42DAC0E0D0E090
:100E30005DDA2097E9F30E940000FACF0895883028
:100E400008F06FC0A82FB0E0AA0FBB1FAE5FBD4F68
:100E500011967C936E9390E0FC013197E730F10599
:100E600098F58827EE58FF4F8F4F0AC4809169008C
:100E70008C7F482B40936900E89A0895809169001F
:100E8000837F440F551F440F551F482B4093690023
:100E9000E99A0895809169008F7C74E0440F551F92
:100EA0007A95E1F7482B40936900EA9A089580917A
:100EB00069008F7366E0440F551F6A95E1F7482B70
:100EC00040936900EB9A089580916A008C7F482BCB
:100ED00040936A00EC9A089580916A00837F440FE2
:100EE000551F440F551F482B40936A00ED9A0895F3
:100EF00080916A008F7C24E0440F551F2A95E1F70A
:100F0000482B40936A00EE9A089580916A008F738F
:100F100096E0440F551F9A95E1F7482B40936A00DD
:100F2000EF9A08951F920F920FB60F9211240BB6ED
:100F30000F922F933F934F935F936F937F938F9372
:100F40009F93AF93BF93EF93FF93E0910602F091CD
:100F500007021995FF91EF91BF91AF919F918F91EA
:100F60007F916F915F914F913F912F910F900BBEA9
:100F70000F900FBE0F901F9018951F920F920FB6F3
:100F80000F9211240BB60F922F933F934F935F93C1
:100F90006F937F938F939F93AF93BF93EF93FF9341
:100FA000E0910802F09109021995FF91EF91BF912C
:100FB000AF919F918F917F916F915F914F913F91F1
:100FC0002F910F900BBE0F900FBE0F901F90189592
:100FD0001F920F920FB60F9211240BB60F922F9300
:100FE0003F934F935F936F937F938F939F93AF93B1
:100FF000BF93EF93FF93E0910A02F0910B021995D2
:10100000FF91EF91BF91AF919F918F917F916F91E0
:101010005F914F913F912F910F900BBE0F900FBE9C
:101020000F901F9018951F920F920FB60F921124D8
:101030000BB60F922F933F934F935F936F937F93D2
:101040008F939F93AF93BF93EF93FF93E0910C0225
:10105000F0910D021995FF91EF91BF91AF919F9182
:101060008F917F916F915F914F913F912F910F9051
:101070000BBE0F900FBE0F901F9018951F920F92EE
:101080000FB60F9211240BB60F922F933F934F93ED
:101090005F936F937F938F939F93AF93BF93EF93E0
:1010A000FF93E0910202F09103021995FF91EF91F5
:1010B000BF91AF919F918F917F916F915F914F9170
:1010C0003F912F910F900BBE0F900FBE0F901F906E
:1010D00018951F920F920FB60F9211240BB60F9214
:1010E0002F933F934F935F936F937F938F939F9330
:1010F000AF93BF93EF93FF93E0910402F091050249
:101100001995FF91EF91BF91AF919F918F917F9131
:101110006F915F914F913F912F910F900BBE0F9068
:101120000FBE0F901F9018951F920F920FB60F923F
:1011300011240BB60F922F933F934F935F936F93AE
:101140007F938F939F93AF93BF93EF93FF93E09120
:101150000E02F0910F021995FF91EF91BF91AF919F
:101160009F918F917F916F915F914F913F912F91BF
:101170000F900BBE0F900FBE0F901F9018951F92EF
:101180000F920FB60F9211240BB60F922F933F932D
:101190004F935F936F937F938F939F93AF93BF937F
:1011A000EF93FF93E0911002F09111021995FF91D6
:1011B000EF91BF91AF919F918F917F916F915F91CF
:1011C0004F913F912F910F900BBE0F900FBE0F903C
:1011D0001F9018951F920F920FB60F9211242F9304
:1011E0003F938F939F93AF93BF938091AC02909165
:1011F000AD02A091AE02B091AF023091AB0223E0FC
:10120000230F2D3720F40196A11DB11D05C026E83E
:10121000230F0296A11DB11D2093AB028093AC0257
:101220009093AD02A093AE02B093AF028091B00252
:101230009091B102A091B202B091B3020196A11DAA
:10124000B11D8093B0029093B102A093B202B0930B
:10125000B302BF91AF919F918F913F912F910F90CA
:101260000FBE0F901F9018953FB7F8948091B00271
:101270009091B102A091B202B091B30226B5A89BA1
:1012800005C02F3F19F00196A11DB11D3FBFBA2F18
:10129000A92F982F8827820F911DA11DB11DBC0178
:1012A000CD0142E0660F771F881F991F4A95D1F73D
:1012B00008958F929F92AF92BF92CF92DF92EF925A
:1012C000FF926B017C01D0DF4B015C01C114D104A2
:1012D000E104F104F1F086D1C7DFDC01CB0188190C
:1012E0009909AA09BB09883E9340A105B10570F38D
:1012F00021E0C21AD108E108F10888EE880E83E0E7
:10130000981EA11CB11CC114D104E104F10421F701
:10131000DDCFFF90EF90DF90CF90BF90AF909F9088
:101320008F900895789484B5826084BD84B581607F
:1013300084BD85B5826085BD85B5816085BDEEE6DD
:10134000F0E0808181608083E1E8F0E010828081BC
:1013500082608083808181608083E0E8F0E080812A
:1013600081608083E1EBF0E0808184608083E0EB4A
:10137000F0E0808181608083E1E9F0E0808182603B
:101380008083808181608083E0E9F0E080818160FA
:101390008083E1EAF0E080818260808380818160E7
:1013A0008083E0EAF0E0808181608083E1E2F1E027
:1013B000808182608083808181608083E0E2F1E0CF
:1013C000808181608083EAE7F0E0808184608083AF
:1013D0008081826080838081816080838081806859
:1013E00080831092C100089590E0FC013197E231B2
:1013F000F10508F04DC08827E758FF4F8F4F40C1D7
:10140000809180008F7703C0809180008F7D8093D2
:101410008000089580918000877FF9CF84B58F7711
:1014200002C084B58F7D84BD08958091B0008F7710
:1014300003C08091B0008F7D8093B00008958091AB
:1014400090008F7707C0809190008F7D03C08091BE
:101450009000877F8093900008958091A0008F77FF
:1014600007C08091A0008F7D03C08091A000877F7E
:101470008093A0000895809120018F7707C080910C
:1014800020018F7D03C080912001877F8093200100
:101490000895CF93DF9390E0FC01E45AFE4F24912E
:1014A000FC01EE55FE4F8491882361F190E0880F96
:1014B000991FFC01EE5FFD4FC591D491FC01E851ED
:1014C000FE4FA591B491611109C09FB7F89488812E
:1014D000209582238883EC912E230BC0623061F427
:1014E0009FB7F8948881322F309583238883EC91BD
:1014F0002E2B2C939FBF06C08FB7F894E8812E2B1C
:1015000028838FBFDF91CF9108951F93CF93DF93EF
:10151000282F30E0F901EA5EFE4F8491F901E45A88
:10152000FE4FD491F901EE55FE4FC491CC23B9F092
:10153000162F811159DFEC2FF0E0EE0FFF1FE8515D
:10154000FE4FA591B4919FB7F894111104C08C91EE
:10155000D095D82302C0EC91DE2BDC939FBFDF91A6
:10156000CF911F9108954F925F926F927F92AF92A9
:10157000BF92CF92DF92EF92FF920F931F93CF9380
:10158000DF93CDB7DEB729013A019B01AC012419E5
:101590003509460957098A899B89AC89BD89BC01EF
:1015A000CD016A197B098C099D091DD0A8019701FD
:1015B000241935094609570947D0CA01B9016A0DEE
:1015C0007B1D8C1D9D1DDF91CF911F910F91FF9071
:1015D000EF90DF90CF90BF90AF907F906F905F9033
:1015E0004F9008950895DB018F939F9351D0BF9141
:1015F000AF91A29F800D911DA39F900DB29F900D62
:1016000011240895A1E21A2EAA1BBB1BFD010DC0D7
:10161000AA1FBB1FEE1FFF1FA217B307E407F507A2
:1016200020F0A21BB30BE40BF50B661F771F881F7E
:10163000991F1A9469F760957095809590959B0114
:10164000AC01BD01CF010895052E97FB16F400945F
:101650000FD057FD05D0D6DF07FC02D046F408C0F6
:1016600050954095309521953F4F4F4F5F4F0895CE
:1016700090958095709561957F4F8F4F9F4F0895FE
:10168000EE0FFF1F881F8BBF0790F691E02D199476
:1016900009D0A59F900DB49F900DA49F800D911D22
:1016A00011240895A29FB001B39FC001A39F700DA4
:1016B000811D1124911DB29F700D811D1124911D5A
:0616C0000895F894FFCF2D
:1016C60006001E071E071E071E071E071E071E070B
:0216D6001E07ED
:00000001FF
